:020000040000FA
:0200000079285D
:0800080083178001840AFF3E0A
:10001000031D05287428031783168C010C14831202
:100020000C0803178D0A7428030103178C0083162C
:100030008C010C1555308D00AA308D008C148C1855
:100040001F280C1183128D0A7428A301A200FF300F
:10005000A207031CA307031C74280330A100E63089
:1000600033202728A101FC3EA000A109031C3E2843
:10007000FF300000A00703183928A0076400A10F73
:10008000382808000310A00DA10DFF3E03184228D8
:10009000200874280310A10CA00CFF3E03184A2866
:1000A00020087428A20001305D28A20006305D28D7
:1000B000A20004305D28A2000530A8002308210218
:1000C000031D64282208200204300318013003199C
:1000D00002302805031DFF3074280038031DFF304F
:1000E0000405031DFF307428831303138312640077
:1000F0000800C0309F00831603178801890103138D
:1001000096018312903098008316243098000A30AC
:1001100099008312253090000B108B108B110B125D
:10012000831681178510051005158515051685128E
:100130000910891086018312860183168710071122
:1001400087110814881408158815081688160817CA
:100150008817831207112030840060308A0105203F
:10016000A030840050308A010520103084006030B7
:100170008A0104209030840060308A0104208601C6
:1001800087108316981283120C10F3308E000B30F8
:100190008F0003178D0103138A010B20F2007208F0
:1001A000DC00031701308D0003138A010B20F200DD
:1001B0007208DD00031702308D0003138A010B2043
:1001C000F2007208DA00031703308D0003138A016E
:1001D0000B20F2007208DB00D8017D30D900061434
:1001E00086140330A300E8308A012620061086100A
:1001F00064008A110A120C1C08290C10F3308E00BE
:100200000B308F008A110A1229248A110A12132135
:10021000DC01DD01FF30DA00FF30DB008A110A1259
:1002200018228A01F8286400043074028A110A1224
:10023000031C21296E11EE10F401EE118A110A122D
:100240002229F40A64008A110A12EE1D2A298A1151
:100250000A124F24E40A64008A110A12641C33292A
:100260008A110A12872464003C3065028A110A123E
:10027000031C3F29E5016D148A110A124029E50A81
:100280000800E80187148316981683123A30F600A6
:100290008A110A120E2264008A110A126D1C772933
:1002A000FF30F5008A110A12D921FF30E8065B08F9
:1002B000F5005B08E8068A110A12D9215A08F500F0
:1002C0005A08E8068A110A12D9215D08F5008A1138
:1002D0000A12D9215D08E8065C08F5008A110A12A5
:1002E000D9215C08E8066D108A110A12A32964005E
:1002F0007108FF3C8A110A12031D8029FE30F100AB
:100300007108F5007108E8068A110A12D9217008EF
:10031000F5007008E8068A110A12D9216F08F50065
:100320006F08E8068A110A12D9215908F5008A11C6
:100330000A12D9215908E8065808F5008A110A124C
:10034000D9215808E8066708F5006708E8068A1109
:100350000A12D921E7016E08F5008A110A12D92183
:100360006E08E8067708F5007708E8068A110A1291
:10037000D9210130F5008A110A12D9210130E8068D
:100380006808F5008A110A12D9210D30F6008A1189
:100390000A120E220A30F6008A110A120E220130C9
:1003A000A100F4308A01332083169812831287103B
:1003B00008007508A000A10104308A014D20F20058
:1003C0008A110A12EA210F307505F2008A110A1209
:1003D000EA21080072080F3C8A110A12031C0E2A37
:1003E0008A110A12F721F6008A110A120E2A013028
:1003F0008A007208FE3E03188A0A820030343134C3
:1004000032343334343435343634373438343934A0
:1004100041344234433444344534463464008A1110
:100420000A120C1A152A8A010E2A76089900080069
:1004300064008A110A12981C212A18121816EA015F
:10044000080064008A110A128C1A272A0800640026
:100450008A110A12181D332A1A08F300EA0108004B
:100460008A110A12352A1A08F30064006A08003C4F
:100470008A110A12031D5E2A64007308403C8A1127
:100480000A120319472AEA018A110A125D2A40302A
:10049000B8000130EA000130F2006400143072024A
:1004A0008A110A1203185D2A7208383E84008001FE
:1004B000F20A8A110A12031D4D2A08006400123044
:1004C0006A028A110A1203187B2A6A08383E8400DD
:1004D000730880006A08383E84000008DE0064006B
:1004E0005E08403C8A110A12031D792A0130EA0095
:1004F0000800EA0A080064006A08123C8A110A121D
:10050000031DB52B6A08383E8400730880006A0812
:10051000383E84000008DE0064005E08403C8A111A
:100520000A12031D962A0130EA0008004030CC0070
:10053000EC010130F2006400123072028A110A12DA
:100540000318DA2AEC0A7208383E84000008EB002F
:100550008A110A12FB236608A000A10104308A0157
:100560004520DE002108DF006C084C3E84005E0858
:10057000800001307207DE00DF01DF0D5E08383ECB
:1005800084000008EB008A110A12FB236C084C3E21
:1005900084000008DE005E086604DE00DF016C08EF
:1005A0004C3E84005E0880000230F2078A110A1275
:1005B000031C9B2A4030E9000130F200640009303E
:1005C00072028A110A120318F12A72084C3E840042
:1005D0000008DE005E08E906F20A8A110A12031D0D
:1005E000DE2A6400690855028A110A120319FA2AE0
:1005F000EA01080064004D08013C8A110A1203193F
:10060000032BEA010800EA015408E70064004E08E1
:10061000013C8A110A12031D0E2B080064004E08CB
:10062000023C8A110A12031D182B8A01412108007D
:1006300064004E08033C8A110A12031D282BEE1495
:100640006E11F4015308F7006D108A014121080072
:1006500064004E08043C8A110A12031D382BEE1068
:100660006E15F4015308F7006D108A01412108004E
:1006700064004E08053C8A110A12031D482BEE1037
:100680006E11F401061086106D108A0141210800D8
:1006900064004E08073C8A110A12031DB42B6D102A
:1006A0008A014121EE155308F7004F08E300500876
:1006B000E2005608A0005708A1006308A3006208E2
:1006C0008A015B208A110A12031D672B0800620849
:1006D000D6006308D7001E305807DE0059080318FB
:1006E000013EDF006208A0006308A1005F08A300CC
:1006F0005E088A015820DE001E305802E0000030FB
:10070000031C013E5902E1006208A0006308A10039
:100710006108A30060088A015220E0005E0884009E
:1007200060088A016D20E000E10064006008610457
:100730008A110A1203199D2B08005808A0005908B5
:10074000A1006308A30062088A0155208A110A12D9
:10075000031DB02BED14EE106E158A110A12B32B87
:10076000ED10EE146E110800080064004E08083CFD
:100770008A110A12031DF32B4F08DB005B08F200FD
:10078000031703308D00031372088A01152005300A
:100790008A0125205008DA005A08F20003170230B7
:1007A0008D00031372088A01152005308A01252067
:1007B0005108DD005D08F200031701308D000313BE
:1007C00072088A01152005308A0125205208DC00B4
:1007D0005C08F20003178D01031372088A011520CB
:1007E00005308A01252064008A110A128C1EFA2B1A
:1007F0008A01182A0800FF30A200A20A22080F3C32
:100800008A110A12031C282C8A110A1211246B0265
:100810008A110A12031DFD2B2208E6008A110A1212
:10082000282C04308A002208183E03188A0A820005
:10083000303431343234333434343534363437347C
:100840003834393441344234433444344534463402
:10085000080064008A110A12061C322CD80A0319F7
:10086000D90A080064008A110A12861C3E2C013045
:10087000D8020030031C013ED9020800080005140C
:1008800064308A0132200808D900851414308A01A6
:1008900032200808D80085100510F4010800F40182
:1008A0008A01292464008A110A12ED1C702C580850
:1008B000A0005908A1006308A30062088A01522021
:1008C0008A110A12031D6D2CEE106E11061086108F
:1008D000F401EE110612861106118A110A12862CF5
:1008E0005808A0005908A1006308A30062088A0103
:1008F00058208A110A12031D862CEE106E11061064
:100900008610F401EE11061286110611080064002B
:100910008A110A12851D932C86100610F401061206
:1009200086110611080064007708003C8A110A123B
:10093000031D9D2C06128611061164007708013CE8
:100940008A110A12031DA72C0612861106156400CF
:100950007708023C8A110A12031DB12C0612861573
:10096000061164007708033C8A110A12031DBB2C90
:1009700006128615061564007708043C8A110A12CF
:10098000031DC52C06168611061164007708053C68
:100990008A110A12031DCF2C061686110615640053
:1009A0007708063C8A110A12031DD92C06168615F3
:1009B00006116400073077028A110A12031CE32C27
:1009C0000616861506155808A0005908A1005B08F0
:1009D000A3005A088A0158208A110A12031DF62C16
:1009E0000610EE106E168A110A12FB2C6E12EE180B
:1009F0000614EE1C06105808A0005908A1005D0856
:100A0000A3005C088A0152208A110A12031D0E2DD0
:100A100086106E11EE168A110A12132DEE126E193F
:0E0A200086146E1D8610080063008A01142DD6
:02400E00FC2F85
:00000001FF
