:020000040000FA
:020000006D2869
:0800080083178001840AFF3E0A
:10001000031D05286828031783168C010C1483120E
:100020000C0803178D0A6828030103178C00831638
:100030008C010C1555308D00AA308D008C148C1855
:100040001F280C1183128D0A6828A301A200FF301B
:10005000A207031CA307031C68280330A100E63095
:1000600033202728A101FC3EA000A109031C3E2843
:10007000FF300000A00703183928A0076400A10F73
:1000800038280800A20001304D28A20006304D2873
:10009000A20004304D28A2000530A8002308210248
:1000A000031D5428220820020430031801300319CC
:1000B00002302805031DFF3068280038031DFF307B
:1000C0000405031DFF3068280404031DFF30682861
:1000D00083130313831264000800C0309F0083164B
:1000E0000317880189010313960183129030980049
:1000F00083162430980040309900831225309000F8
:100100000B108B108B110B128316811785100510A5
:1001100005158515051685120910891083128601AB
:100120008316860187100711871108148814081593
:1001300088150816881608178817831207112030AB
:10014000840060308A010520A030840050308A018C
:1001500005201030840060308A0104209030840033
:1001600060308A010420860187100C10F3308E0065
:100170000B308F0006160130A300F4308A012620D0
:10018000061203178D0103138A010B20E900690889
:10019000D100031701308D0003138A010B20E90001
:1001A0006908D200031702308D0003138A010B2067
:1001B000E9006908CF00031703308D0003138A019B
:1001C0000B20E9006908D00083169812831264009E
:1001D0008A110A12E61CEC2864008A110A120C1C0F
:1001E000FC280C10F3308E000B308F008A110A129D
:1001F0004B248A110A1201218A110A121F228A0134
:10020000E728640004306B028A110A12031C0F29CC
:100210006811E810EB0166118A110A121029EB0A25
:1002200064008A110A12661D18298A110A125B24B9
:10023000DB0A64008A110A125B1C36298A110A1231
:10024000932464008A110A12681D2A29E7018A1181
:100250000A12362964008A110A12E81C3429013076
:10026000E7008A110A1236290230E70064003C30A8
:100270005C028A110A12031C4229DC0165148A11EE
:100280000A124329DC0A0800CB01CC01871483162B
:10029000981683122430EC008A110A12FE21523083
:1002A000EC008A110A12FE212430EC008A110A1295
:1002B000FE2164008A110A12651C6A29FF30EC00D5
:1002C000FF30CB060030CC068A110A12FE218A11BB
:1002D0000A1271296808EC006808CB068A110A1214
:1002E000FE2164008A110A12651C80295008EC0066
:1002F0005008CB068A110A12FE218A110A12872998
:100300006608EC006608CB068A110A12FE2164001A
:100310008A110A12651C96294F08EC004F08CB067B
:100320008A110A12FE218A110A129D296008EC0026
:100330006008CB068A110A12FE215F08EC005F08F4
:10034000CB068A110A12FE2164008A110A12651C6A
:10035000BA295208EC008A110A12FE215108EC0059
:100360008A110A12FE215108CB065208CC068A11C6
:100370000A12C8294E08EC008A110A12FE214D0803
:10038000EC008A110A12FE214D08CB064E08CC065D
:100390006D08EC006D08CB068A110A12FE210130AF
:1003A000EC008A110A12FE210130CB060030CC0687
:1003B000AA30CB06AA30CC064C08EC008A110A12EF
:1003C000FE214B08EC008A110A12FE212330EC00BA
:1003D0008A110A12FE212330EC008A110A12FE2132
:1003E00064008A110A12651CF629651005308A011D
:1003F00025208316981283128710080001300C1AEA
:10040000013AD3000030D40083160030981A01302E
:1004100083128400530854048A015D20D300D40061
:100420006400530854048A110A120319192A8A0114
:10043000FE296C0899008316981683120800640040
:100440008A110A12981C272A18121816080064002C
:100450008A110A128C1A2D2A08001A08EA006A0862
:10046000693C031DFF30FF3AD3005E08003C031DCA
:10047000FF30FF3AD5005308840055088A015D20FB
:10048000D500D6006400550856048A110A120319D3
:10049000692A0130E9006400093069028A110A12F0
:1004A00003185B2A6908383E84008001E90A8A1132
:1004B0000A12031D4B2A6930B8000130DE00DD014D
:1004C00064008A110A128C1E682A8A011F2A0800F9
:1004D000080064005E08003C8A110A12031D792A94
:1004E00064008A110A128C1E782A8A011F2A0800C9
:1004F0000800640008305E028A110A120318992A63
:100500005E08383E84006A08800064005E08073C8C
:100510008A110A12031D8F2A8A110A12992ADE0AE9
:1005200064008A110A128C1E982A8A011F2A080068
:100530000800DE013F08013C031DFF30FF3AD300F5
:100540003F08143C031DFF30FF3AD50053088400D8
:1005500055088A016420D500D60064005508560469
:100560008A110A1203194A2C39083A06D300D40119
:100570003C08D3063D08D3063E08D3063F08530681
:10058000DD0064005D083B028A110A120319C92AC2
:10059000080064003908703C8A110A12031DD12A30
:1005A000080064003908673C8A110A12031DDB2A1F
:1005B0008A014421080064003908623C8A110A1249
:1005C000031DE32A080064003908633C8A110A12FB
:1005D000031DEB2A080064003908613C8A110A12E5
:1005E000031DF92AE81468116512EB013A08ED00C1
:1005F0000800640039087A3C8A110A12031D072B8F
:10060000E81068156516EB013A08ED000800640073
:100610003908783C8A110A12031D142BE81068115E
:10062000EB01061086100800640039086A3C8A1144
:100630000A12031D1C2B080064003908723C8A1141
:100640000A12031D2A2B64008A110A12E61C292BA8
:1006500008000800640039086C3C8A110A12031D66
:10066000382B64008A110A12E61C372B0800080098
:1006700064003908713C8A110A12031D462B64007C
:100680008A110A12E61C452B08000800640039088C
:100690006E3C8A110A12031D4E2B080064003908B3
:1006A0006B3C8A110A12031DF92BE51066153A08F6
:1006B000ED003D08D7003E08D80064003C08313CFE
:1006C0008A110A12031D792B4D08A0004E08A100C3
:1006D0005808A30057088A0142208A110A12031DF4
:1006E000752BEB016611651508006515E810681596
:1006F000651664003C08323C8A110A12031D952BD2
:100700004D08A0004E08A1005808A30057088A0110
:1007100048208A110A12031D912BEB016611651105
:1007200008006511E8146811651264003C08383C43
:100730008A110A12031DF82B4908A0004A08A100DB
:100740005808A30057088A014B208A110A12031D7A
:10075000AA2B08005708C9005808CA001E304D07C8
:10076000D3004E080318013ED4005708A0005808D3
:10077000A1005408A30053088A014820D3001E306A
:100780004D02D5000030031C013E4E02D600570832
:10079000A0005808A1005608A30055088A0142206D
:1007A000D5005308840055088A015D20D500D60085
:1007B0006400550856048A110A120319E02B080038
:1007C0004D08A0004E08A1005808A30057088A0150
:1007D00045208A110A12031DF42B6515E8106815CF
:1007E00065168A110A12F82B6511E8146811651252
:1007F000080064003908733C8A110A12031D212C79
:1008000064008A110A12E61C062C08003D08D1007B
:100810005108E90003178D01031369088A011520A7
:1008200005308A0125203E08D2005208E90003174E
:1008300001308D00031369088A01152005308A01F3
:10084000252064003908643C8A110A12031D4A2CD1
:1008500064008A110A12E61C2E2C08003D08CF0005
:100860004F08E900031702308D00031369088A015D
:10087000152005308A0125203E08D0005008E900E7
:10088000031703308D00031369088A011520053012
:100890008A0125200800051464308A0132200808E6
:1008A000CE00851414308A0132200808CD0085104E
:1008B0000510EB010800EB018A014B2464008A114A
:1008C0000A12651D7C2C4D08A0004E08A100580896
:1008D000A30057088A0142208A110A12031D792CAD
:1008E000E810681106108610EB01661106128611D9
:1008F00006118A110A12922C4D08A0004E08A10080
:100900005808A30057088A0148208A110A12031DBB
:10091000922CE810681106108610EB016611061281
:1009200086110611080064008A110A12851DA02C88
:1009300086100610EB01061286110611E61008005B
:1009400064006D08003C8A110A12031DAA2C0612CD
:100950008611061164006D08013C8A110A12031DFC
:10096000B42C06128611061564006D08023C8A112B
:100970000A12031DBE2C06128615061164006D08AE
:10098000033C8A110A12031DC82C0612861506158F
:1009900064006D08043C8A110A12031DD22C06164D
:1009A0008611061164006D08053C8A110A12031DA8
:1009B000DC2C06168611061564006D08063C8A11AB
:1009C0000A12031DE62C0616861506116400073070
:1009D0006D028A110A12031CF02C061686150615E4
:1009E0004D08A0004E08A1005008A3004F088A013E
:1009F00048208A110A12031D032D0610E8106816FC
:100A00008A110A12082D6812E8180614E81C06104C
:100A10004D08A0004E08A1005208A30051088A0109
:100A200042208A110A12031D1B2D86106811E81638
:100A30008A110A12202DE81268198614681D861082
:080A4000080063008A01212D6A
:02400E00FC2F85
:00000001FF
