:020000040000FA
:02000000862850
:0800080083178001840AFF3E0A
:10001000031D05288128031783168C010C148312F5
:100020000C0803178D0A8128030103178C0083161F
:100030008C010C1555308D00AA308D008C148C1855
:100040001F280C1183128D0A8128A301A200FF3002
:10005000A207031CA307031C81280330A100E6307C
:1000600033202728A101FC3EA000A109031C3E2843
:10007000FF300000A00703183928A0076400A10F73
:10008000382808000310A00DA10DFF3E03184228D8
:10009000200881280310A10CA00CFF3E03184A2859
:1000A00020088128A20001305B28A20006305B28CE
:1000B000A20004305B28A80023082102031D622847
:1000C00022082002043003180130031902302805E9
:1000D000031DFF3081281030A800A101A001A70C4A
:1000E000A60C031C79282208A00723080318230F55
:1000F000A107A10CA00CA50CA40CA80B6F28240828
:10010000812883130313831264000800C0309F000A
:100110008316031788018901031396018312903017
:1001200098008316243098000A30990083122530F5
:1001300090000B108B108B110B12831681178510FA
:1001400005100515851505168512091089108601FB
:1001500083128601831687100711871108148814EB
:1001600008158815081688160817881783120711AE
:100170002030840060308A010520A0308400503097
:100180008A0105201030840060308A0104209030FC
:10019000840060308A01042086018710831698123B
:1001A00083120C10F3308E000B308F008316A117D2
:1001B0002113831203178D0103138A010B20831669
:1001C000A50025088312F000031701308D000313EA
:1001D0008A010B208316A50025088312F10003175E
:1001E00002308D0003138A010B208316A500250819
:1001F0008312EE00031703308D0003138A010B20D6
:100200008316A50025088312EF00EC017D30ED0078
:1002100064008A110A120C1C18290C10F3308E008D
:100220000B308F008A110A12C1248A110A121D2173
:100230008A110A1288228A01082964000430831670
:1002400027028A110A128312031C2E2983162111F8
:10025000A110A70183128A110A1231298316A70A55
:10026000831264008A110A1283168310A11D83145D
:100270008312831861296A08A0006B08A100A301FA
:1002800032308A0155208A110A12031D502932305A
:10029000EA020030031C013EEB028A110A126129B6
:1002A0006A08A0006B08A100A30100308A01552054
:1002B0008A110A12031D6129EA01EB018316A111BB
:1002C00083128A110A12EA24F60A64008A110A12B9
:1002D000761C6D298A110A12732564003C3077025E
:1002E0008A110A12031C7929F7017F148A110A1254
:1002F0007A29F70A0800FA018714831698163A300B
:10030000A90083128A110A127C2264008A110A123F
:100310007F1CBB298316FF30A80083128A110A12A2
:100320003B22FF30FA066F088316A80083126F087D
:10033000FA068A110A123B226E088316A80083125D
:100340006E08FA068A110A123B2271088316A80069
:1003500083128A110A123B227108FA06700883166A
:10036000A80083128A110A123B227008FA067F1035
:100370008A110A12F529640083162408FF3C8A11A9
:100380000A128312031DC8298316FE30A4008312AB
:1003900083162408A80024088312FA068A110A1278
:1003A0003B2283162308A80023088312FA068A1129
:1003B0000A123B2283162208A80022088312FA069A
:1003C0008A110A123B226D088316A80083128A1133
:1003D0000A123B226D08FA066C088316A8008312E5
:1003E0008A110A123B226C08FA0679088316A800C3
:1003F00083127908FA068A110A123B22F901831640
:100400002108A80083128A110A123B2283162108B0
:100410008312FA0683162A08A8002A088312FA060D
:100420008A110A123B2283160130A80083128A1116
:100430000A123B220130FA067A088316A8008312BA
:100440008A110A123B2283160D30A90083128A11E9
:100450000A127C2283160A30A90083128A110A121A
:100460007C220130A100F4308A01332083169812D7
:10047000831287100800831628088312A000A101A8
:1004800004308A014D208316A50083128A110A12B6
:1004900052220F3083162805A50083128A110A12F2
:1004A00052220800831625080F3C8A110A12831273
:1004B000031C7C2A8A110A1263228316A900831264
:1004C0008A110A127C2A02308A00831625088312B8
:1004D0006C3E03188A0A82003034313432343334AB
:1004E00034343534363437343834393441344234A2
:1004F000433444344534463464008A110A120C1AD9
:10050000832A8A017C2A831629088312990008000D
:1005100064008A110A12981C912A18121816FC01FC
:10052000080064008A110A128C1A972A08006400D5
:100530008A110A12181DA52A1A088316A60083120A
:10054000FC0108008A110A12A92A1A088316A600BB
:10055000831264007C08003C8A110A12031DDC2A05
:10056000640083162608403C8A110A12831203197C
:10057000BD2AFC018A110A12DB2A4030B800013082
:10058000FC0083160130A50083126400143083162A
:1005900025028A110A1283120318DB2A8316250802
:1005A000383E8400831280018316A50A8A110A123C
:1005B0008312031DC52A0800640012307C028A11D0
:1005C0000A120318FB2A7C08383E8400831626088A
:1005D000831280007C08383E84000008F20064002A
:1005E0007208403C8A110A12031DF92A0130FC00EE
:1005F0000800FC0A080064007C08123C8A110A12F8
:10060000031D8B2C7C08383E840083162608831239
:1006100080007C08383E84000008F2006400720804
:10062000403C8A110A12031D182B0130FC000800FF
:100630004030D600FE0183160130A500831264000D
:100640001230831625028A110A1283120318662BB0
:10065000FE0A83162508383E840083120008FD0038
:100660008A110A1293247808A000A10104308A019B
:100670004520F2002108F3007E08563E84007208EF
:1006800080000130831625078312F200F301F30D79
:100690007208383E84000008FD008A110A12932473
:1006A0007E08563E84000008F20072087804F200CA
:1006B000F3017E08563E84007208800002308316E3
:1006C000A5078A110A128312031C1F2B4030FB005E
:1006D00083160130A50083126400093083162502B9
:1006E0008A110A1283120318852B83162508563E99
:1006F000840083120008F2007208FB068316A50A24
:100700008A110A128312031D6C2B64007B085F029E
:100710008A110A1203198E2BFC0108006400570885
:10072000013C8A110A120319972BFC010800FC01F5
:100730005E08F90064005808013C8A110A12031D82
:10074000A22B080064005808023C8A110A12031DFB
:10075000AC2B8A017B21080064005808033C8A11F5
:100760000A12031DD62B8A017B2164008A110A120A
:1007700083168310A11D831483128318C02B0800D5
:1007800064008A110A1283168310211E83148312B7
:100790008318CB2B08008316A1142111A701831203
:1007A0005D088316AA0083127F10080064005808B1
:1007B000043C8A110A12031D002C8A017B2164006B
:1007C0008A110A1283168310A11D831483128318C1
:1007D000EA2B080064008A110A1283168310A11EF6
:1007E000831483128318F52B08008316A11021159A
:1007F000A70183125D088316AA0083127F100800E8
:1008000064005808053C8A110A12031D1E2C831629
:10081000A1102111A7018312061086107F108316E4
:10082000A1118312EA01EB018316AB01A001A1170C
:100830002113A20183128A017B2108006400580859
:10084000063C8A110A12031D2C2C7F108A110A12F1
:10085000CF268A017B21080064005808073C8A11D2
:100860000A12031D3A2C7F108A110A12CF268A0120
:100870007B21080064005808083C8A110A12031DF5
:100880008A2C8A017B215908EF006F088316A50086
:100890008312031703308D00831603132508831278
:1008A0008A01152005308A0125205A08EE006E08BD
:1008B0008316A5008312031702308D0083160313DD
:1008C000250883128A01152005308A0125205B083E
:1008D000F10071088316A5008312031701308D0003
:1008E00083160313250883128A01152005308A0117
:1008F00025205C08F00070088316A50083120317FA
:100900008D0183160313250883128A0115200530F3
:100910008A012520080064008A110A128C1E922C7C
:100920008A01882A0800FF30A200A20A22080F3C90
:100930008A110A12031CC02C8A110A12A9247D02F2
:100940008A110A12031D952C2208F8008A110A1236
:10095000C02C04308A002208B03E03188A0A8200A4
:10096000303431343234333434343534363437344B
:1009700038343934413442344334443445344634D1
:10098000080064008A110A12061CCB2C0A30EC07FE
:100990000318ED0A080064008A110A12861CD72C7D
:1009A0000A30EC020030031C013EED020800080092
:1009B000051464308A0132200808ED0085141430D3
:1009C0008A0132200808EC00851005108316A70163
:1009D000831208008316A70183128A01C1246A08C2
:1009E000A0006B08A100A30100308A0155208A11E4
:1009F0000A12031D062D8316A11021118312061061
:100A000086108316A701AA018312080064008A11C8
:100A10000A1283168310A1198314831283183A2DA6
:100A200064000130831622028A110A128312031C09
:100A3000392D8A110A1224266C08A0006D08A10025
:100A40007508A30074088A0155208A110A12031D33
:100A5000312DFF148316A110211583128A110A1259
:100A6000362DFF108316A114211183128316A115B0
:100A70008312080064008A110A12FF1C5A2D6C08A8
:100A8000A0006D08A1007508A30074088A01522017
:100A90008A110A12031D572D8316A11021118312EA
:100AA000061086108316A701A111AA0183128A11CC
:100AB0000A12722D6C08A0006D08A1007508A30031
:100AC00074088A0158208A110A12031D722D831698
:100AD000A11021118312061086108316A701A111FF
:100AE000AA018312080064008A110A12851D842D50
:100AF000831621148312861006108316A701831211
:100B000006128611061108008316211064002A08B7
:100B1000003C8A110A128312031D912D06128611C0
:100B20000611640083162A08013C8A110A128312F6
:100B3000031D9D2D061286110615640083162A08D2
:100B4000023C8A110A128312031DA92D0612861572
:100B50000611640083162A08033C8A110A128312C4
:100B6000031DB52D061286150615640083162A0886
:100B7000043C8A110A128312031DC12D0616861128
:100B80000611640083162A08053C8A110A12831292
:100B9000031DCD2D061686110615640083162A083E
:100BA000063C8A110A128312031DD92D06168615DA
:100BB00006116400073083162A028A110A12831272
:100BC000031CE52D0616861506156C08A0006D0899
:100BD000A1006F08A3006E088A0158208A110A122A
:100BE000031DFA2D06108316A110211683128A11F7
:100BF0000A12042E831621128310A1188314831263
:100C000083180614831C06106C08A0006D08A10050
:100C10007108A30070088A0152208A110A12031D6C
:100C2000192E861083162111A11683128A110A1219
:100C3000232E8316A1128310211983148312831883
:100C40008614831C8610080083160310200D4C3E6A
:100C5000840083120008F400840A0008F50083165B
:100C60002008653E8400831200088316AA0020082D
:100C7000603E840083120008F20064007208013CA8
:100C80008A110A12031D522E83160310200D4C3EAA
:100C9000840083120008EA00840A0008EB008A112D
:100CA0000A12542EEA01EB016400831620082B027D
:100CB0008A110A128312031D682E64008A110A1217
:100CC00083168310A11F831483128318682E0800D3
:100CD000640083162008043C8A110A128312031D43
:100CE000772E8316A00183128A110A127A2E831698
:100CF000A00A83126400831620082B028A110A12AC
:100D00008312031D892E8316A11783128A110A12DA
:100D10008C2E831621138312640083162B08200265
:100D20008A110A12831203189A2E831620082B02A6
:100D3000A2008312640083162B0820028A110A1273
:100D40008312031DB72E64008A110A1283168310C2
:100D5000211F831483128318B42E83160530A2003A
:100D600083128A110A12B72E8316A201831264001D
:100D7000831620082B028A110A1283120318CE2E22
:100D800083162008053C8312F2000030031CFF3E4E
:100D9000F300720883162B07A20083120800831643
:100DA000A701640020082B028A110A128312031D76
:100DB000E42E64008A110A1283168310211F831403
:100DC00083128318E42E080083162B08653E8400E6
:100DD00083125D08800083162B088312A600A701EA
:100DE0000230A200A3018A016B20F2002508F30063
:100DF000F20A0319F30A72084C3E84005908800075
:100E000083162B088312A600A7010230A200A301BB
:100E10008A016B20F2002508F30072084C3E840022
:100E20005A08800064005808063C8A110A12031D03
:100E3000232F83162B08603E84008312013080002C
:100E40008A110A12292F83162B08603E8400831210
:100E50008001640083162B08043C8A110A12831255
:100E6000031D382F8316AB0183128A110A123B2F00
:100E70008316AB0A83126400831620082B028A11A2
:100E80000A128312031D4A2F8316211783128A1117
:100E90000A124D2F8316A1138312640083162B08A8
:100EA00020028A110A12831203185B2F831620086E
:100EB0002B02A2008312640083162B0820028A11E1
:100EC0000A128312031D782F64008A110A128316F6
:100ED0008310211F831483128318752F8316053006
:100EE000A20083128A110A12782F8316A20183129C
:100EF0006400831620082B028A110A128312031839
:100F00008F2F83162008053C8312F2000030031C4B
:100F1000FF3EF300720883162B07A200831208001D
:060F200063008A01902F1E
:02400E00FC2F85
:00000001FF
