:020000040000FA
:0200000079285D
:0800080083178001840AFF3E0A
:10001000031D05287428031783168C010C14831202
:100020000C0803178D0A7428030103178C0083162C
:100030008C010C1555308D00AA308D008C148C1855
:100040001F280C1183128D0A7428A301A200FF300F
:10005000A207031CA307031C74280330A100E63089
:1000600033202728A101FC3EA000A109031C3E2843
:10007000FF300000A00703183928A0076400A10F73
:10008000382808000310A00DA10DFF3E03184228D8
:10009000200874280310A10CA00CFF3E03184A2866
:1000A00020087428A20001305D28A20006305D28D7
:1000B000A20004305D28A2000530A8002308210218
:1000C000031D64282208200204300318013003199C
:1000D00002302805031DFF3074280038031DFF304F
:1000E0000405031DFF307428831303138312640077
:1000F0000800C0309F00831603178801890103138D
:1001000096018312903098008316243098000A30AC
:1001100099008312253090000B108B108B110B125D
:10012000831681178510051005158515051685128E
:100130000910891086018312860183168710071122
:1001400087110814881408158815081688160817CA
:100150008817831207112030840060308A0105203F
:10016000A030840050308A010520103084006030B7
:100170008A0104209030840060308A0104208601C6
:1001800087108316981283120C10F3308E000B30F8
:100190008F0003178D0103138A010B20F2007208F0
:1001A000DC00031701308D0003138A010B20F200DD
:1001B0007208DD00031702308D0003138A010B2043
:1001C000F2007208DA00031703308D0003138A016E
:1001D0000B20F2007208DB00D8017D30D900061434
:1001E00086140330A300E8308A012620061086100A
:1001F00064008A110A120C1C08290C10F3308E00BE
:100200000B308F008A110A1231248A110A1213212D
:10021000DC01DD01FF30DA00FF30DB008A110A1259
:1002200017228A01F8286400043074028A110A1225
:10023000031C20296E11EE10F4018A110A122129E3
:10024000F40A64008A110A12EE1D29298A110A1281
:100250005724E40A64008A110A12641C32298A11A4
:100260000A128F2464003C3065028A110A12031CB2
:100270003E29E5016D148A110A123F29E50A08009A
:10028000E80187148316981683123A30F6008A1113
:100290000A120D2264008A110A126D1C7629FF30A1
:1002A000F5008A110A12D821FF30E8065B08F50034
:1002B0005B08E8068A110A12D8215A08F5005A0884
:1002C000E8068A110A12D8215D08F5008A110A127F
:1002D000D8215D08E8065C08F5008A110A12D821C9
:1002E0005C08E8066D108A110A12A22964007108E0
:1002F000FF3C8A110A12031D7F29FE30F1007108AC
:10030000F5007108E8068A110A12D8217008F50074
:100310007008E8068A110A12D8216F08F5006F08E4
:10032000E8068A110A12D8215908F5008A110A1222
:10033000D8215908E8065808F5008A110A12D82170
:100340005808E8066708F5006708E8068A110A12E7
:10035000D821E7016E08F5008A110A12D8216E082B
:10036000E8067708F5007708E8068A110A12D8210E
:100370000130F5008A110A12D8210130E806680818
:10038000F5008A110A12D8210D30F6008A110A12DE
:100390000D220A30F6008A110A120D220130A10046
:1003A000F4308A01332083169812831287100800D4
:1003B0007508A000A10104308A014D20F2008A11C5
:1003C0000A12E9210F307505F2008A110A12E9219B
:1003D000080072080F3C8A110A12031C0D2A8A11A8
:1003E0000A12F621F6008A110A120D2A01308A003B
:1003F0007208FD3E03188A0A8200303431343234E8
:100400003334343435343634373438343934413491
:100410004234433444344534463464008A110A1269
:100420000C1A142A8A010D2A760899000800640023
:100430008A110A12981C202A18121816EA010800BC
:1004400064008A110A128C1A262A080064008A1194
:100450000A12181D322A1A08F300EA0108008A114C
:100460000A12342A1A08F30064006A08003C8A1150
:100470000A12031D5D2A64007308403C8A110A12A7
:100480000319462AEA018A110A125C2A4030B80090
:100490000130EA000130F2006400143072028A1167
:1004A0000A1203185C2A7208383E84008001F20A9E
:1004B0008A110A12031D4C2A0800640012306A02D5
:1004C0008A110A1203187A2A6A08383E84007308CF
:1004D00080006A08383E84000008DE0064005E0880
:1004E000403C8A110A12031D782A0130EA000800F4
:1004F000EA0A080064006A08123C8A110A12031D05
:10050000BD2B6A08383E8400730880006A08383EB4
:1005100084000008DE0064005E08403C8A110A1274
:10052000031D952A0130EA0008004030CC00EC01A0
:100530000130F2006400123072028A110A120318AC
:10054000D92AEC0A7208383E84000008EB008A11B0
:100550000A1203246608A000A10104308A01452084
:10056000DE002108DF006C084C3E84005E0880003D
:1005700001307207DE00DF01DF0D5E08383E8400C7
:100580000008EB008A110A1203246C084C3E840018
:100590000008DE005E086604DE00DF016C084C3EE9
:1005A00084005E0880000230F2078A110A12031CE0
:1005B0009A2A4030E9000130F200640009307202EA
:1005C0008A110A120318F02A72084C3E84000008AF
:1005D000DE005E08E906F20A8A110A12031DDD2A0E
:1005E0006400690855028A110A120319F92AEA01FE
:1005F000080064004D08013C8A110A120319022BFD
:10060000EA010800EA015408E70064004E08013CD2
:100610008A110A12031D0D2B080064004E08023CCB
:100620008A110A12031D172B8A0140210800640059
:100630004E08033C8A110A12031D2D2B8A0140210A
:1006400064008A110A12EE1D262B0800EE146E11AA
:10065000F4015308F7006D10080064004E08043CD4
:100660008A110A12031D432B8A01402164008A115A
:100670000A12EE1D3C2B0800EE106E15F401530813
:10068000F7006D10080064004E08053C8A110A123C
:10069000031D542BEE106E11F401061086106D1020
:1006A000EE118A014021080064004E08073C8A11BF
:1006B0000A12031DBC2B6D108A014021EE15530850
:1006C000F7004F08E3005008E2005808A00059085E
:1006D000A1006308A30062088A015B208A110A1244
:1006E000031D732B08001E305807DE00590803183D
:1006F000013EDF006208A0006308A1005F08A300BC
:100700005E088A015820DE001E305802E0000030EA
:10071000031C013E5902E1006208A0006308A10029
:100720006108A30060088A015220E0005E0884008E
:1007300060088A016D20E000E10064006008610447
:100740008A110A120319A52B08005808A00059089D
:10075000A1006308A30062088A0155208A110A12C9
:10076000031DB82BED14EE106E158A110A12BB2B67
:10077000ED10EE146E110800080064004E08083CED
:100780008A110A12031DFB2B4F08DB005B08F200E5
:10079000031703308D00031372088A0115200530FA
:1007A0008A0125205008DA005A08F20003170230A7
:1007B0008D00031372088A01152005308A01252057
:1007C0005108DD005D08F200031701308D000313AE
:1007D00072088A01152005308A0125205208DC00A4
:1007E0005C08F20003178D01031372088A011520BB
:1007F00005308A01252064008A110A128C1E022C01
:100800008A01172A0800FF30A200A20A22080F3C22
:100810008A110A12031C302C8A110A1219246B0245
:100820008A110A12031D052C2208E6008A110A12F9
:10083000302C04308A002208203E03188A0A8200E5
:10084000303431343234333434343534363437346C
:1008500038343934413442344334443445344634F2
:10086000080064008A110A12061C3A2CD80A0319DF
:10087000D90A080064008A110A12861C462C01302D
:10088000D8020030031C013ED902080008000514FC
:1008900064308A0132200808D900851414308A0196
:1008A00032200808D80085100510F4010800F40172
:1008B0008A01312464008A110A12ED1C782C580830
:1008C000A0005908A1006308A30062088A01522011
:1008D0008A110A12031D752CEE106E110610861077
:1008E000F401EE110612861106118A110A128E2CDD
:1008F0005808A0005908A1006308A30062088A01F3
:1009000058208A110A12031D8E2CEE106E1106104B
:100910008610F401EE11061286110611080064001B
:100920008A110A12851D9B2C86100610F4010612EE
:1009300086110611080064007708003C8A110A122B
:10094000031DA52C06128611061164007708013CD0
:100950008A110A12031DAF2C0612861106156400B7
:100960007708023C8A110A12031DB92C061286155B
:10097000061164007708033C8A110A12031DC32C78
:1009800006128615061564007708043C8A110A12BF
:10099000031DCD2C06168611061164007708053C50
:1009A0008A110A12031DD72C06168611061564003B
:1009B0007708063C8A110A12031DE12C06168615DB
:1009C00006116400073077028A110A12031CEB2C0F
:1009D0000616861506155808A0005908A1005B08E0
:1009E000A3005A088A0158208A110A12031DFE2CFE
:1009F0000610EE106E168A110A12032D6E12EE18F2
:100A00000614EE1C06105808A0005908A1005D0845
:100A1000A3005C088A0152208A110A12031D162DB8
:100A200086106E11EE168A110A121B2DEE126E1927
:0E0A300086146E1D8610080063008A011C2DBE
:02400E00FC2F85
:00000001FF
