:020000040000FA
:020000007D2859
:0800080083178001840AFF3E0A
:10001000031D05287828031783168C010C148312FE
:100020000C0803178D0A7828030103178C00831628
:100030008C010C1555308D00AA308D008C148C1855
:100040001F280C1183128D0A7828A301A200FF300B
:10005000A207031CA307031C78280330A100E63085
:1000600033202728A101FC3EA000A109031C3E2843
:10007000FF300000A00703183928A0076400A10F73
:10008000382808000310A00DA10DFF3E03184228D8
:10009000200878280310A10CA00CFF3E03184A2862
:1000A00020087828A20001305D28A20006305D28D3
:1000B000A20004305D28A2000530A8002308210218
:1000C000031D64282208200204300318013003199C
:1000D00002302805031DFF3078280038031DFF304B
:1000E0000405031DFF3078280404031DFF30782821
:1000F00083130313831264000800C0309F0083162B
:100100000317880189010313960183129030980028
:100110008316243098000A3099008312253090000D
:100120000B108B108B110B12831681178510051085
:10013000051585150516851209108910860183128B
:100140008601831687100711871108148814081573
:10015000881508168816081788178312071120308B
:10016000840060308A010520A030840050308A016C
:1001700005201030840060308A0104209030840013
:1001800060308A010420860187108316981283123A
:100190000C10F3308E000B308F0003178D0103130A
:1001A0008A010B20F4007408DC00031701308D0075
:1001B00003138A010B20F4007408DD0003170230DA
:1001C0008D0003138A010B20F4007408DA00031772
:1001D00003308D0003138A010B20F4007408DB0048
:1001E000D8017D30D900061486140330A300E8300E
:1001F0008A0126200610861064008A110A120C1C3F
:100200000C290C10F3308E000B308F008A110A126B
:1002100085258A110A1211218A110A1219228A01CE
:10022000FC286400043076028A110A12031C1F297C
:100230007011F010F601F0118A110A122029F60A45
:1002400064008A110A12F01D28298A110A129625C3
:10025000E60A64008A110A12661C31298A110A1200
:10026000CE2564003C3067028A110A12031C3D2926
:10027000E7016F148A110A124129D80A0319D90A11
:10028000E70A0800EA0187148316981683123A30A9
:10029000F8008A110A120F2264008A110A126F1CD8
:1002A0007829FF30F7008A110A12DA21FF30EA06B6
:1002B0005B08F7005B08EA068A110A12DA215A087D
:1002C000F7005A08EA068A110A12DA215D08F700D7
:1002D0008A110A12DA215D08EA065C08F7008A1121
:1002E0000A12DA215C08EA066F108A110A12A429A0
:1002F00064007308FF3C8A110A12031D8129FE3035
:10030000F3007308F7007308EA068A110A12DA216B
:100310007208F7007208EA068A110A12DA217108D7
:10032000F7007108EA068A110A12DA215908F70063
:100330008A110A12DA215908EA065808F7008A11C8
:100340000A12DA215808EA066908F7006908EA067D
:100350008A110A12DA21E9017008F7008A110A12DB
:10036000DA217008EA067908F7007908EA068A11A6
:100370000A12DA210130F7008A110A12DA2101305B
:10038000EA066A08F7008A110A12DA210D30F8002D
:100390008A110A120F220A30F8008A110A120F225B
:1003A0000130A100F4308A013320831698128312A1
:1003B000871008007708A000A10104308A014D20B1
:1003C000F4008A110A12EB210F307705F4008A112C
:1003D0000A12EB21080074080F3C8A110A12031C50
:1003E0000F2A8A110A12F821F8008A110A120F2A1C
:1003F00001308A007408FF3E03188A0A82003034F4
:1004000031343234333434343534363437343834A8
:10041000393441344234433444344534463464003E
:100420008A110A120C1A162A8A010F2A78089900D2
:10043000080064008A110A12981C222A1812181641
:10044000EC01080064008A110A128C1A282A08009C
:1004500064008A110A12181D342A1A08F500EC01EA
:1004600008008A110A12362A1A08F50064006C087E
:10047000003C8A110A12031D5F2A64007508403C83
:100480008A110A120319482AEC018A110A125E2AFB
:100490004030B8000130EC000130F400640014304A
:1004A00074028A110A1203185E2A7408383E840006
:1004B0008001F40A8A110A12031D4E2A0800640002
:1004C00012306C028A110A1203187C2A6C08383E1A
:1004D0008400750880006C08383E84000008DE0047
:1004E00064005E08403C8A110A12031D7A2A01301A
:1004F000EC000800EC0A080064006C08123C8A1149
:100500000A12031D402B6C08383E840075088000D9
:100510006C08383E84000008DE0064005E08403C41
:100520008A110A12031D972A0130EC00080040309E
:10053000CC00EE010130F4006400123074028A1124
:100540000A120318DB2AEE0A7408383E84000008F9
:10055000ED008A110A1241236808A000A1010430AD
:100560008A014520DE002108DF006E084C3E840031
:100570005E08800001307407DE00DF01DF0D5E08D9
:10058000383E84000008ED008A110A1241236E08EB
:100590004C3E84000008DE005E086804DE00DF01D7
:1005A0006E084C3E84005E0880000230F4078A1119
:1005B0000A12031C9C2A4030EB000130F400640056
:1005C000093074028A110A120318F22A74084C3E88
:1005D00084000008DE005E08EB06F40A8A110A12A5
:1005E000031DDF2A64006B0855028A110A120319E1
:1005F000FB2AEC01080064004D08013C8A110A1234
:100600000319042BEC010800EC0164004E08013CC6
:100610008A110A12031D0D2B080064004E08023CCB
:100620008A110A12031D172B8A0142210800640057
:100630004E08033C8A110A12031D252BF014701179
:10064000F60106145308F900080064004E08043C43
:100650008A110A12031D332BF0107015F60186144F
:100660005308F900080064004E08053C8A110A127C
:10067000031D402BF0107011F601061086100800C3
:100680000800FF30A200A20A22080F3C8A110A12B9
:10069000031C6E2B8A110A1257236D028A110A124B
:1006A000031D432B2208E8008A110A126E2B033027
:1006B0008A0022085E3E03188A0A820030343134F0
:1006C00032343334343435343634373438343934DE
:1006D00041344234433444344534463408007508C8
:1006E000403C031DFF30FF3ADE006C08003C031D58
:1006F000FF30FF3AE0005E08840060088A016D2048
:10070000E000E1006400600861048A110A12031924
:10071000AA2B6F110130F4006400093074028A11B1
:100720000A1203189C2B7408383E84008001F40AD6
:100730008A110A12031D8C2B4030B8000130EC00E6
:10074000EB0164008A110A128C1EA92B8A01192A56
:100750000800080064006C08003C8A110A12031D9E
:10076000BA2B64008A110A128C1EB92B8A01192A2D
:1007700008000800640008306C028A110A1203188D
:10078000282C6C08383E8400750880003808403CEE
:10079000031DFF30FF3ADE003908313C031DFF30F6
:1007A000E0005E08840060088A016D20E000E1003E
:1007B0006400600861048A110A120319E12BEC013C
:1007C000080064006C08023C8A110A12031D142CF4
:1007D0003808403C031DFF30FF3ADE003908313C49
:1007E000031DFF30FF3AE0005E08840060088A01C4
:1007F0006D20E000E1003A08463C031DFF30FF3A5F
:10080000E20060086104840062088A016D20E20051
:10081000E3006400620863048A110A120319142CAD
:10082000EC018A014221080064006C08073C8A112F
:100830000A12031D1E2C8A110A12282CEC0A6400CD
:100840008A110A128C1E272C8A01192A0800080016
:10085000EC013F08013C031DFF30FF3ADE003F087A
:10086000FF3C031DFF30FF3AE0005E088400600893
:100870008A017420E000E1006400600861048A11CC
:100880000A120319842D39083A06DE00DF013C08FC
:10089000DE063D08DE063E08DE063F085E06EB008B
:1008A00064006B083B028A110A120319582C0800D5
:1008B00064003908703C8A110A12031D602C08007C
:1008C00064003908673C8A110A12031D6A2C8A01E8
:1008D0004221080064003908613C8A110A12031D94
:1008E000772CF0147011F6013A08F9000800640042
:1008F00039087A3C8A110A12031D842CF0107015F5
:10090000F6013A08F900080064003908783C8A11B9
:100910000A12031D912CF0107011F60106108610BA
:100920000800640039086A3C8A110A12031D992CD8
:100930000800640039086B3C8A110A12031D3F2D20
:10094000F0153A08F9003D08E4003E08E5006400AF
:100950003C08313C8A110A12031DC22C5808A00021
:100960005908A1006508A30064088A0152208A1171
:100970000A12031DBF2CF601F011EF140800EF144A
:10098000F010701564003C08323C8A110A12031DF5
:10099000DD2C5808A0005908A1006508A3006408D0
:1009A0008A0158208A110A12031DDA2CF601F0116F
:1009B000EF100800EF10F014701164003C08383C90
:1009C0008A110A12031D3E2D5608A0005708A100E7
:1009D0006508A30064088A015B208A110A12031DBE
:1009E000F22C08006408D6006508D7001E305807AE
:1009F000DE0059080318013EDF006408A000650806
:100A0000A1005F08A3005E088A015820DE001E30A6
:100A10005802E0000030031C013E5902E100640866
:100A2000A0006508A1006108A30060088A015220A7
:100A3000E0005E08840060088A016D20E000E100AB
:100A40006400600861048A110A120319282D080045
:100A50005808A0005908A1006508A30064088A018D
:100A600055208A110A12031D3B2DEF14F01070154A
:100A70008A110A123E2DEF10F01470110800640064
:100A80003908733C8A110A12031D612D3D08DC00F0
:100A90005C08F40003178D01031374088A01152004
:100AA00005308A0125203E08DD005D08F4000317AB
:100AB00001308D00031374088A01152005308A0166
:100AC000252064003908643C8A110A12031D842D14
:100AD0003D08DA005A08F400031702308D000313B2
:100AE00074088A01152005308A0125203E08DB00A4
:100AF0005B08F400031703308D00031374088A01A8
:100B0000152005308A0125200800080005146430EE
:100B10008A0132200808D900851414308A01322055
:100B20000808D80085100510F6010800F6018A01B2
:100B3000852564008A110A12EF1CB72D5808A00001
:100B40005908A1006508A30064088A0152208A118F
:100B50000A12031DB42DF010701106108610F60154
:100B6000F0110612861106118A110A12CD2D5808AD
:100B7000A0005908A1006508A30064088A01582054
:100B80008A110A12031DCD2DF01070110610861067
:100B9000F601F011061286110611080064008A1190
:100BA0000A12851DDA2D86100610F601061286112E
:100BB0000611080064007908003C8A110A12031D1E
:100BC000E42D06128611061164007908013C8A1191
:100BD0000A12031DEE2D061286110615640079080F
:100BE000023C8A110A12031DF82D06128615061101
:100BF00064007908033C8A110A12031D022E0612B2
:100C00008615061564007908043C8A110A12031D32
:100C10000C2E06168611061164007908053C8A110F
:100C20000A12031D162E0616861106156400790891
:100C3000063C8A110A12031D202E0616861506117F
:100C40006400073079028A110A12031C2A2E061644
:100C5000861506155808A0005908A1005B08A300D6
:100C60005A088A0158208A110A12031D3D2E0610C7
:100C7000F01070168A110A12422E7012F018061423
:100C8000F01C06105808A0005908A1005D08A30038
:100C90005C088A0152208A110A12031D552E861003
:100CA0007011F0168A110A125A2EF0127019861459
:0C0CB000701D8610080063008A015B2E96
:02400E00FC2F85
:00000001FF
