:020000040000FA
:020000007D2859
:0800080083178001840AFF3E0A
:10001000031D05287828031783168C010C148312FE
:100020000C0803178D0A7828030103178C00831628
:100030008C010C1555308D00AA308D008C148C1855
:100040001F280C1183128D0A7828A301A200FF300B
:10005000A207031CA307031C78280330A100E63085
:1000600033202728A101FC3EA000A109031C3E2843
:10007000FF300000A00703183928A0076400A10F73
:10008000382808000310A00DA10DFF3E03184228D8
:10009000200878280310A10CA00CFF3E03184A2862
:1000A00020087828A20001305D28A20006305D28D3
:1000B000A20004305D28A2000530A8002308210218
:1000C000031D64282208200204300318013003199C
:1000D00002302805031DFF3078280038031DFF304B
:1000E0000405031DFF3078280404031DFF30782821
:1000F00083130313831264000800C0309F0083162B
:100100000317880189010313960183129030980028
:100110008316243098000A3099008312253090000D
:100120000B108B108B110B12831681178510051085
:10013000051585150516851209108910860183128B
:100140008601831687100711871108148814081573
:10015000881508168816081788178312071120308B
:10016000840060308A010520A030840050308A016C
:1001700005201030840060308A0104209030840013
:1001800060308A010420860187108316981283123A
:100190000C10F3308E000B308F0003178D0103130A
:1001A0008A010B20F4007408DC00031701308D0075
:1001B00003138A010B20F4007408DD0003170230DA
:1001C0008D0003138A010B20F4007408DA00031772
:1001D00003308D0003138A010B20F4007408DB0048
:1001E000D8017D30D90064008A110A120C1C032941
:1001F0000C10F3308E000B308F008A110A124B2541
:100200008A110A1208218A110A1210228A01F3287F
:100210006400043076028A110A12031C1629701138
:10022000F010F601F0118A110A121729F60A64007B
:100230008A110A12F01D1F298A110A125C25E60A8A
:1002400064008A110A12661C28298A110A12942550
:1002500064003C3067028A110A12031C3429E7014A
:100260006F148A110A123829D80A0319D90AE70A21
:100270000800EA0187148316981683123A30F800B2
:100280008A110A12062264008A110A126F1C6F2951
:10029000FF30F7008A110A12D121FF30EA065B080D
:1002A000F7005B08EA068A110A12D1215A08F70002
:1002B0005A08EA068A110A12D1215D08F7008A114C
:1002C0000A12D1215D08EA065C08F7008A110A12B9
:1002D000D1215C08EA066F108A110A129B2964007A
:1002E0007308FF3C8A110A12031D7829FE30F300BF
:1002F0007308F7007308EA068A110A12D1217208FE
:10030000F7007208EA068A110A12D1217108F70073
:100310007108EA068A110A12D1215908F7008A11D8
:100320000A12D1215908EA065808F7008A110A1260
:10033000D1215808EA066908F7006908EA068A1117
:100340000A12D121E9017008F7008A110A12D1219D
:100350007008EA067908F7007908EA068A110A1295
:10036000D1210130F7008A110A12D1210130EA06A9
:100370006A08F7008A110A12D1210D30F8008A119B
:100380000A1206220A30F8008A110A1206220130E7
:10039000A100F4308A01332083169812831287104B
:1003A00008007708A000A10104308A014D20F40064
:1003B0008A110A12E2210F307705F4008A110A121D
:1003C000E221080074080F3C8A110A12031C062A55
:1003D0008A110A12EF21F8008A110A12062A013046
:1003E0008A007408F63E03188A0A820030343134D9
:1003F00032343334343435343634373438343934B1
:1004000041344234433444344534463464008A1120
:100410000A120C1A0D2A8A01062A78089900080087
:1004200064008A110A12981C192A18121816EC0175
:10043000080064008A110A128C1A1F2A080064003E
:100440008A110A12181D2B2A1A08F500EC0108005F
:100450008A110A122D2A1A08F50064006C08003C63
:100460008A110A12031D562A64007508403C8A113D
:100470000A1203193F2AEC018A110A12552A403048
:10048000B8000130EC000130F40064001430740254
:100490008A110A120318552A7408383E8400800114
:1004A000F40A8A110A12031D452A0800640012305A
:1004B0006C028A110A120318732A6C08383E8400F1
:1004C000750880006C08383E84000008DE00640077
:1004D0005E08403C8A110A12031D712A0130EC00AB
:1004E0000800EC0A080064006C08123C8A110A1229
:1004F000031D062B6C08383E8400750880006C08CC
:10050000383E84000008DE0064005E08403C8A112A
:100510000A12031D8E2A0130EC0008004030CC0086
:10052000EE010130F4006400123074028A110A12E4
:100530000318D22AEE0A7408383E84000008ED0041
:100540008A110A1207236808A000A10104308A0159
:100550004520DE002108DF006E084C3E84005E0866
:10056000800001307407DE00DF01DF0D5E08383ED9
:1005700084000008ED008A110A1207236E084C3E21
:1005800084000008DE005E086804DE00DF016E08FB
:100590004C3E84005E0880000230F4078A110A1283
:1005A000031C932A4030EB000130F4006400093052
:1005B00074028A110A120318E92A74084C3E840056
:1005C0000008DE005E08EB06F40A8A110A12031D19
:1005D000D62A64006B0855028A110A120319F22AFE
:1005E000EC01080064004D08013C8A110A1203194D
:1005F000FB2AEC010800EC0164004E08023C8A1161
:100600000A12031D062B8A01392108000800FF3059
:10061000A200A20A22080F3C8A110A12031C342BE2
:100620008A110A121D236D028A110A12031D092B59
:100630002208E8008A110A12342B03308A002208AB
:10064000243E03188A0A8200303431343234333481
:100650003434353436343734383439344134423430
:10066000433444344534463408007508403C031D87
:10067000FF30FF3ADE006C08003C031DFF30FF3AFC
:10068000E0005E08840060088A016D20E000E1005F
:100690006400600861048A110A120319702B6F113B
:1006A0000130F4006400093074028A110A12031840
:1006B000622B7408383E84008001F40A8A110A1201
:1006C000031D522B4030B8000130EC00EB016400F8
:1006D0008A110A128C1E6F2B8A01102A080008004A
:1006E00064006C08003C8A110A12031D802B640010
:1006F0008A110A128C1E7F2B8A01102A080008001A
:10070000640008306C028A110A120318EE2B6C0880
:10071000383E8400750880003808403C031DFF30D7
:10072000FF3ADE003908313C031DFF30E0005E086F
:10073000840060088A016D20E000E1006400600828
:1007400061048A110A120319A72BEC010800640046
:100750006C08023C8A110A12031DDA2B3808403C4F
:10076000031DFF30FF3ADE003908313C031DFF3026
:10077000FF3AE0005E08840060088A016D20E00016
:10078000E1003A08463C031DFF30FF3AE2006008F2
:100790006104840062088A016D20E200E3006400C5
:1007A000620863048A110A120319DA2BEC018A0128
:1007B0003921080064006C08073C8A110A12031DE5
:1007C000E42B8A110A12EE2BEC0A64008A110A1239
:1007D0008C1EED2B8A01102A08000800EC013F084E
:1007E000013C031DFF30FF3ADE003F08FF3C031DC4
:1007F000FF30FF3AE0005E08840060088A01742040
:10080000E000E1006400600861048A110A12031923
:100810004A2D39083A06DE00DF013C08DE063D08B5
:10082000DE063E08DE063F085E06EB0064006B084D
:100830003B028A110A1203191E2C080064003908B1
:10084000703C8A110A12031D262C08006400390826
:10085000673C8A110A12031D302C8A0139210800D5
:1008600064003908613C8A110A12031D3D2CF01402
:100870007011F6013A08F9000800640039087A3C62
:100880008A110A12031D4A2CF0107015F6013A085D
:10089000F900080064003908783C8A110A12031D27
:1008A000572CF0107011F601061086100800640035
:1008B00039086A3C8A110A12031D5F2C0800640083
:1008C00039086B3C8A110A12031D052DF0153A08F0
:1008D000F9003D08E4003E08E50064003C08313CB6
:1008E0008A110A12031D882C5808A0005908A1007B
:1008F0006508A30064088A0152208A110A12031DA8
:10090000852CF601F011EF140800EF14F0107015AB
:1009100064003C08323C8A110A12031DA32C5808BB
:10092000A0005908A1006508A30064088A015820A6
:100930008A110A12031DA02CF601F011EF10080015
:10094000EF10F014701164003C08383C8A110A1250
:10095000031D042D5608A0005708A1006508A30038
:1009600064088A015B208A110A12031DB82C080052
:100970006408D6006508D7001E305807DE00590805
:100980000318013EDF006408A0006508A1005F08AD
:10099000A3005E088A015820DE001E305802E000E5
:1009A0000030031C013E5902E1006408A000650804
:1009B000A1006108A30060088A015220E0005E08DF
:1009C000840060088A016D20E000E1006400600896
:1009D00061048A110A120319EE2C08005808A000BD
:1009E0005908A1006508A30064088A0155208A11EE
:1009F0000A12031D012DEF14F01070158A110A124E
:100A0000042DEF10F0147011080064003908733CD5
:100A10008A110A12031D272D3D08DC005C08F40032
:100A200003178D01031374088A01152005308A010C
:100A300025203E08DD005D08F400031701308D001D
:100A4000031374088A01152005308A0125206400EB
:100A50003908643C8A110A12031D4A2D3D08DA0048
:100A60005A08F400031702308D00031374088A013A
:100A7000152005308A0125203E08DB005B08F400C4
:100A8000031703308D00031374088A011520053005
:100A90008A01252008000800051464308A013220EC
:100AA0000808D900851414308A0132200808D800BB
:100AB00085100510F6010800F6018A014B25640037
:100AC0008A110A12EF1C7D2D5808A0005908A100B8
:100AD0006508A30064088A0152208A110A12031DC6
:100AE0007A2DF010701106108610F601F011061222
:100AF000861106118A110A12932D5808A000590870
:100B0000A1006508A30064088A0158208A110A120E
:100B1000031D932DF010701106108610F601F011D0
:100B2000061286110611080064008A110A12851D3A
:100B3000A02D86100610F601061286110611080077
:100B400064007908003C8A110A12031DAA2D0612BE
:100B50008611061164007908013C8A110A12031DEE
:100B6000B42D06128611061564007908023C8A111C
:100B70000A12031DBE2D061286150611640079089F
:100B8000033C8A110A12031DC82D0612861506158C
:100B900064007908043C8A110A12031DD22D06163E
:100BA0008611061164007908053C8A110A12031D9A
:100BB000DC2D06168611061564007908063C8A119C
:100BC0000A12031DE62D061686150611640007306D
:100BD00079028A110A12031CF02D061686150615D5
:100BE0005808A0005908A1005B08A3005A088A0110
:100BF00058208A110A12031D032E0610F0107016D9
:100C00008A110A12082E7012F0180614F01C061031
:100C10005808A0005908A1005D08A3005C088A01DB
:100C200052208A110A12031D1B2E86107011F01615
:100C30008A110A12202EF01270198614701D861067
:080C4000080063008A01212E67
:02400E00FC2F85
:00000001FF
