:020000040000FA
:02000000752861
:0800080083178001840AFF3E0A
:10001000031D05287028031783168C010C14831206
:100020000C0803178D0A7028030103178C00831630
:100030008C010C1555308D00AA308D008C148C1855
:100040001F280C1183128D0A7028A301A200FF3013
:10005000A207031CA307031C70280330A100E6308D
:1000600033202728A101FC3EA000A109031C3E2843
:10007000FF300000A00703183928A0076400A10F73
:10008000382808000310A10CA00CFF3E03184228DA
:1000900020087028A20001305528A20006305528FB
:1000A000A20004305528A2000530A8002308210230
:1000B000031D5C28220820020430031801300319B4
:1000C00002302805031DFF3070280038031DFF3063
:1000D0000405031DFF3070280404031DFF30702841
:1000E00083130313831264000800C0309F0083163B
:1000F0000317880189010313960183129030980039
:100100008316243098000A3099008312253090001D
:100110000B108B108B110B12831681178510051095
:10012000051585150516851209108910860183129B
:100130008601831687100711871108148814081583
:10014000881508168816081788178312071120309B
:10015000840060308A010520A030840050308A017C
:1001600005201030840060308A0104209030840023
:1001700060308A010420860187100C10F3308E0055
:100180000B308F0006160130A300F4308A012620C0
:10019000061203178D0103138A010B20E200620887
:1001A000D100031701308D0003138A010B20E200F8
:1001B0006208D200031702308D0003138A010B205E
:1001C000E2006208CF00031703308D0003138A0199
:1001D0000B20E2006208D000CD017D30CE008316F6
:1001E0009812831264008A110A120C1C02290C1046
:1001F000F3308E000B308F008A110A1203248A110B
:100200000A1207218A110A122C228A01F22864009C
:10021000043064028A110A12031C15295E11DE10D3
:10022000E401DE118A110A121629E40A64008A1117
:100230000A12DE1D1E298A110A121424D90A64002A
:100240008A110A12591C27298A110A124C246400A7
:100250003C305A028A110A12031C3329DA015D1458
:100260008A110A123A29CD0A0319CE0A8A110A12F2
:100270003B21DA0A0800CB01CC01871483169816BB
:1002800083123A30E6008A110A12222264008A118F
:100290000A125D1C5729FF30E5008A110A12ED2170
:1002A000FF30CB060030CC068A110A125E295E08A8
:1002B000E5005E08CB068A110A12ED2164008A115E
:1002C0000A125D1C6D295008E5005008CB068A1102
:1002D0000A12ED218A110A1274296108E5006108E9
:1002E000CB068A110A12ED2164008A110A125D1CE4
:1002F00083294F08E5004F08CB068A110A12ED2129
:100300008A110A128A295F08E5005F08CB068A1164
:100310000A12ED216008E5006008CB068A110A1276
:10032000ED2164008A110A125D1CA7295208E5001C
:100330008A110A12ED215108E5008A110A12ED21F5
:100340005108CB065208CC068A110A12B5294E086C
:10035000E5008A110A12ED214D08E5008A110A1202
:10036000ED214D08CB064E08CC066708E50067086E
:10037000CB068A110A12ED210130E5008A110A121A
:10038000ED210130CB060030CC06AA30CB06AA30D6
:10039000CC064C08E5008A110A12ED214B08E50055
:1003A0008A110A12ED210D30E6008A110A1222226A
:1003B0000A30E6008A110A12222264008A110A1207
:1003C0005D1CE3295D100130A100F4308A01332067
:1003D000831698128312871008006508A000A101F7
:1003E00004308A014520E2008A110A12FE210F30F2
:1003F0006505E2008A110A12FE21080062080F3C1E
:100400008A110A12031C222A8A110A120B22E60000
:100410008A110A12222A02308A006208123E031848
:100420008A0A82003034313432343334343435344F
:100430003634373438343934413442344334443434
:100440004534463464008A110A120C1A292A8A019A
:10045000222A66089900080064008A110A12981C72
:10046000342A18121816080064008A110A128C1A0D
:100470003A2A08001A08E3006308693C031DFF30AC
:10048000FF3AD3005C08003C031DFF30FF3AD50063
:100490005308840055088A016520D500D600640001
:1004A000550856048A110A120319762A0130E2000F
:1004B0006400093062028A110A120318682A62086D
:1004C000383E84008001E20A8A110A12031D582A6C
:1004D0006930B8000130DC00DB0164008A110A12C7
:1004E0008C1E752A8A012C2A0800080064005C080A
:1004F000003C8A110A12031D862A64008A110A121E
:100500008C1E852A8A012C2A080008006400083005
:100510005C028A110A120318A62A5C08383E84007D
:100520006308800064005C08073C8A110A12031DFE
:100530009C2A8A110A12A62ADC0A64008A110A126D
:100540008C1EA52A8A012C2A08000800DC013F081D
:10055000013C031DFF30FF3AD3003F08143C031D4C
:10056000FF30FF3AD5005308840055088A016C20FB
:10057000D500D6006400550856048A110A120319E2
:10058000022C39083A06D300D4013C08D3063D08B2
:10059000D3063E08D3063F085306DB0064005B0821
:1005A0003B028A110A120319D62A0800640039088E
:1005B000703C8A110A12031DDE2A08006400390803
:1005C000673C8A110A12031DE82A8A013B210800B0
:1005D00064003908613C8A110A12031DF52ADE14F1
:1005E0005E11E4013A08E7000800640039087A3C2B
:1005F0008A110A12031D022BDE105E15E4013A086F
:10060000E700080064003908783C8A110A12031DCB
:100610000F2BDE105E11E401061086100800640046
:1006200039086A3C8A110A12031D172B080064005E
:1006300039086B3C8A110A12031DBD2BDE153A08DE
:10064000E7003D08D7003E08D80064003C08313C74
:100650008A110A12031D402B4D08A0004E08A1006C
:100660005808A30057088A014A208A110A12031D5C
:100670003D2BE401DE11DD140800DD14DE105E15F3
:1006800064003C08323C8A110A12031D5B2B4D08A2
:10069000A0004E08A1005808A30057088A01502066
:1006A0008A110A12031D582BE401DE11DD10080027
:1006B000DD10DE145E1164003C08383C8A110A1219
:1006C000031DBC2B4908A0004A08A1005808A3003C
:1006D00057088A0153208A110A12031D702B080043
:1006E0005708C9005808CA001E304D07D3004E08ED
:1006F0000318013ED4005708A0005808A100540870
:10070000A30053088A015020D3001E304D02D500AB
:100710000030031C013E4E02D6005708A0005808C6
:10072000A1005608A30055088A014A20D5005308A5
:10073000840055088A016520D500D600640055085C
:1007400056048A110A120319A62B08004D08A000AE
:100750004E08A1005808A30057088A014D208A11AD
:100760000A12031DB92BDD14DE105E158A110A1260
:10077000BC2BDD10DE145E11080064003908733CE8
:100780008A110A12031DDF2B3D08D1005108E20037
:1007900003178D01031362088A01152005308A01B1
:1007A00025203E08D2005208E200031701308D00D8
:1007B000031362088A01152005308A012520640090
:1007C0003908643C8A110A12031D022C3D08CF002F
:1007D0004F08E200031702308D00031362088A01FC
:1007E000152005308A0125203E08D0005008E2007F
:1007F000031703308D00031362088A0115200530AA
:100800008A01252008000800051464308A0132207E
:100810000808CE00851414308A0132200808CD0063
:1008200085100510E4010800E4018A010324640036
:100830008A110A12DD1C352C4D08A0004E08A100BB
:100840005808A30057088A014A208A110A12031D7A
:10085000322CDE105E1106108610E401DE11061245
:10086000861106118A110A124B2C4D08A0004E0861
:10087000A1005808A30057088A0150208A110A12C3
:10088000031D4B2CDE105E1106108610E401DE11F4
:10089000061286110611080064008A110A12851DCD
:1008A000582C86100610E401061286110611080065
:1008B00064006708003C8A110A12031D622C0612AC
:1008C0008611061164006708013C8A110A12031D93
:1008D0006C2C06128611061564006708023C8A110A
:1008E0000A12031D762C061286150611640067088D
:1008F000033C8A110A12031D802C06128615061568
:1009000064006708043C8A110A12031D8A2C06162B
:100910008611061164006708053C8A110A12031D3E
:10092000942C06168611061564006708063C8A1189
:100930000A12031D9E2C0616861506116400073048
:1009400067028A110A12031CA82C061686150615C2
:100950004D08A0004E08A1005008A3004F088A01CE
:1009600050208A110A12031DBB2C0610DE105E16E1
:100970008A110A12C02C5E12DE180614DE1C061044
:100980004D08A0004E08A1005208A30051088A019A
:100990004A208A110A12031DD32C86105E11DE161E
:1009A0008A110A12D82CDE125E1986145E1D86107A
:0809B000080063008A01D92C44
:02400E00FC2F85
:00000001FF
