:020000040000FA
:02000000752861
:0800080083178001840AFF3E0A
:10001000031D05287028031783168C010C14831206
:100020000C0803178D0A7028030103178C00831630
:100030008C010C1555308D00AA308D008C148C1855
:100040001F280C1183128D0A7028A301A200FF3013
:10005000A207031CA307031C70280330A100E6308D
:1000600033202728A101FC3EA000A109031C3E2843
:10007000FF300000A00703183928A0076400A10F73
:10008000382808000310A10CA00CFF3E03184228DA
:1000900020087028A20001305528A20006305528FB
:1000A000A20004305528A2000530A8002308210230
:1000B000031D5C28220820020430031801300319B4
:1000C00002302805031DFF3070280038031DFF3063
:1000D0000405031DFF3070280404031DFF30702841
:1000E00083130313831264000800C0309F0083163B
:1000F0000317880189010313960183129030980039
:100100008316243098000A3099008312253090001D
:100110000B108B108B110B12831681178510051095
:10012000051585150516851209108910860183129B
:100130008601831687100711871108148814081583
:10014000881508168816081788178312071120309B
:10015000840060308A010520A030840050308A017C
:1001600005201030840060308A0104209030840023
:1001700060308A010420860187108316981283124A
:100180000C10F3308E000B308F0003178D0103131A
:100190008A010B20E4006408CF00031701308D00B2
:1001A00003138A010B20E4006408D0000317023017
:1001B0008D0003138A010B20E4006408CD000317AF
:1001C00003308D0003138A010B20E4006408CE0085
:1001D000CB017D30CC0064008A110A120C1CFB2874
:1001E0000C10F3308E000B308F008A110A12DE24BF
:1001F0008A110A1200218A110A1207228A01EB28A9
:100200006400043066028A110A12031C0E295F1171
:10021000DF10E601DF118A110A120F29E60A6400D5
:100220008A110A12DF1D17298A110A12EF24D90A2E
:1002300064008A110A12591C20298A110A122725E2
:1002400064003C305A028A110A12031C2C29DA017C
:100250005E148A110A123029CB0A0319CC0ADA0A71
:100260000800DB0187148316981683123A30E800E1
:100270008A110A12FD2164008A110A125E1C672984
:10028000FF30E7008A110A12C821FF30DB064E0852
:10029000E7004E08DB068A110A12C8214D08E70064
:1002A0004D08DB068A110A12C8215008E7008A119E
:1002B0000A12C8215008DB064F08E7008A110A120B
:1002C000C8214F08DB065E108A110A1293296400C8
:1002D0006308FF3C8A110A12031D7029FE30E300F7
:1002E0006308E7006308DB068A110A12C821620866
:1002F000E7006208DB068A110A12C8216108E700DC
:100300006108DB068A110A12C8214C08E7008A112D
:100310000A12C8214C08DB064B08E7008A110A12B2
:10032000C8214B08DB066008E7006008DB068A117D
:100330000A12C8215F08E7008A110A12C8215F0863
:10034000DB066908E7006908DB068A110A12C82182
:100350000130E7008A110A12C8210130DB065B0870
:10036000E7008A110A12C8210D30E8008A110A122A
:10037000FD210A30E8008A110A12FD210130A10096
:10038000F4308A01332083169812831287100800F4
:100390006708A000A10104308A014520E4008A1109
:1003A0000A12D9210F306705E4008A110A12D921F7
:1003B000080064080F3C8A110A12031CFD298A11E7
:1003C0000A12E621E8008A110A12FD2901308A008A
:1003D0006408ED3E03188A0A820030343134323426
:1003E00033343434353436343734383439344134B2
:1003F0004234433444344534463464008A110A128A
:100400000C1A042A8A01FD29680899000800640072
:100410008A110A12981C102A18121816DD010800F9
:1004200064008A110A128C1A162A080064008A11C4
:100430000A12181D222A1A08E500DD0108008A1197
:100440000A12242A1A08E50064005D08003C8A119B
:100450000A12031D512A64006508403C8A110A12E1
:100460000319362ADD018A110A124D2A4030B800DC
:100470000130DD000130E4006400093064028A11BB
:100480000A1203184C2A6408383E84008001E40AEA
:100490008A110A12031D3C2ADC0108008A110A1283
:1004A000C02A64005D08013C8A110A12031D6B2AF0
:1004B00064006508313C8A110A120319632ADD01C0
:1004C0008A110A12672A3130B9000230DD000800B3
:1004D0008A110A12C02A64005D08023C8A110A12BD
:1004E000031D872A64006508463C8A110A12031D11
:1004F0007F2A8A013121DD018A110A12832A6508C7
:10050000BA000330DD0008008A110A12C02A640014
:100510005D08033C8A110A12031D912A8A110A12EE
:10052000C02A64005D08043C8A110A12031D9B2A3C
:100530008A110A12C02A64005D08053C8A110A1259
:10054000031DA52A8A110A12C02A64005D08063C10
:100550008A110A12031DAF2A8A110A12C02A6400E6
:100560005D08073C8A110A12031DB92A8A110A1272
:10057000C02A64005D08083C8A110A12031DC02AC3
:1005800064008A110A128C1EC72A8A01072A0800F1
:100590006508403C031DFF30FF3AD1005D08003C78
:1005A000031DFF30FF3AD3005108840053088A012D
:1005B0006520D300D4006400530854048A110A1241
:1005C0000319032B5E110130E4006400093064025A
:1005D0008A110A120318F52A6408383E8400800143
:1005E000E40A8A110A12031DE52A4030B8000130DE
:1005F000DD00DC0164008A110A128C1E022B8A01C4
:10060000072A0800080064005D08003C8A110A12ED
:10061000031D132B64008A110A128C1E122B8A01EF
:10062000072A08000800640008305D028A110A12D7
:100630000318812B5D08383E840065088000380867
:10064000403C031DFF30FF3AD1003908313C031D07
:10065000FF30D3005108840053088A016520D3007D
:10066000D4006400530854048A110A1203193A2B67
:10067000DD01080064005D08023C8A110A12031DB6
:100680006D2B3808403C031DFF30FF3AD10039087C
:10069000313C031DFF30FF3AD3005108840053085A
:1006A0008A016520D300D4003A08463C031DFF3080
:1006B000FF3AD50053085404840055088A01652088
:1006C000D500D6006400550856048A110A12031991
:1006D0006D2BDD018A013121080064005D08073CB3
:1006E0008A110A12031D772B8A110A12812BDD0A47
:1006F00064008A110A128C1E802B8A01072A0800C6
:100700000800DD013F08013C031DFF30FF3AD10026
:100710003F08FF3C031DFF30FF3AD300510884001F
:1007200053088A016C20D300D40064005308540499
:100730008A110A120319DD2C39083A06D100D201B8
:100740003C08D1063D08D1063E08D1063F085106B7
:10075000DC0064005C083B028A110A120319B12B09
:10076000080064003908703C8A110A12031DB92B75
:10077000080064003908673C8A110A12031DC32B64
:100780008A013121080064003908613C8A110A128B
:10079000031DD02BDF145F11E6013A08E9000800C1
:1007A000640039087A3C8A110A12031DDD2BDF1020
:1007B0005F15E6013A08E900080064003908783C52
:1007C0008A110A12031DEA2BDF105F11E6010610E1
:1007D00086100800640039086A3C8A110A12031D59
:1007E000F22B0800640039086B3C8A110A12031DC1
:1007F000982CDF153A08E9003D08D7003E08D800DC
:1008000064003C08313C8A110A12031D1B2C4B0862
:10081000A0004C08A1005808A30057088A014A20EC
:100820008A110A12031D182CE601DF11DE140800DC
:10083000DE14DF105F1564003C08323C8A110A1296
:10084000031D362C4B08A0004C08A1005808A3003B
:1008500057088A0150208A110A12031D332CE60121
:10086000DF11DE100800DE10DF145F1164003C08A9
:10087000383C8A110A12031D972C4908A0004A0827
:10088000A1005808A30057088A0153208A110A12B0
:10089000031D4B2C08005708C9005808CA001E3019
:1008A0004B07D1004C080318013ED2005708A000A6
:1008B0005808A1005208A30051088A015020D10015
:1008C0001E304B02D3000030031C013E4C02D4000A
:1008D0005708A0005808A1005408A30053088A0133
:1008E0004A20D3005108840053088A016520D300B0
:1008F000D4006400530854048A110A120319812C8D
:1009000008004B08A0004C08A1005808A300570895
:100910008A014D208A110A12031D942CDE14DF1067
:100920005F158A110A12972CDE10DF145F11080080
:1009300064003908733C8A110A12031DBA2C3D0861
:10094000CF004F08E40003178D01031364088A01E8
:10095000152005308A0125203E08D0005008E4000B
:10096000031701308D00031364088A011520053038
:100970008A01252064003908643C8A110A12031D8B
:10098000DD2C3D08CD004D08E400031702308D003A
:10099000031364088A01152005308A0125203E08CA
:1009A000CE004E08E400031703308D0003136408E3
:1009B0008A01152005308A01252008000800051449
:1009C00064308A0132200808CC00851414308A0172
:1009D00032200808CB0085100510E6010800E6016A
:1009E0008A01DE2464008A110A12DE1C102D4B08D5
:1009F000A0004C08A1005808A30057088A014A200B
:100A00008A110A12031D0D2DDF105F1106108610CA
:100A1000E601DF110612861106118A110A12262D2F
:100A20004B08A0004C08A1005808A30057088A01F1
:100A300050208A110A12031D262DDF105F110610A7
:100A40008610E601DF110612861106110800640007
:100A50008A110A12851D332D86100610E601061232
:100A600086110611080064006908003C8A110A1208
:100A7000031D3D2D06128611061164006908013C14
:100A80008A110A12031D472D0612861106156400ED
:100A90006908023C8A110A12031D512D061286159F
:100AA000061164006908033C8A110A12031D5B2DBC
:100AB00006128615061564006908043C8A110A129C
:100AC000031D652D06168611061164006908053C94
:100AD0008A110A12031D6F2D061686110615640071
:100AE0006908063C8A110A12031D792D061686151F
:100AF00006116400073069028A110A12031C832D53
:100B00000616861506154B08A0004C08A1004E08D5
:100B1000A3004D088A0150208A110A12031D962D48
:100B20000610DF105F168A110A129B2D5F12DF1864
:100B30000614DF1C06104B08A0004C08A10050084A
:100B4000A3004F088A014A208A110A12031DAE2D04
:100B500086105F11DF168A110A12B32DDF125F199A
:0E0B600086145F1D8610080063008A01B42D04
:02400E00FC2F85
:00000001FF
