:020000040000FA
:02000000862850
:0800080083178001840AFF3E0A
:10001000031D05288128031783168C010C148312F5
:100020000C0803178D0A8128030103178C0083161F
:100030008C010C1555308D00AA308D008C148C1855
:100040001F280C1183128D0A8128A301A200FF3002
:10005000A207031CA307031C81280330A100E6307C
:1000600033202728A101FC3EA000A109031C3E2843
:10007000FF300000A00703183928A0076400A10F73
:10008000382808000310A00DA10DFF3E03184228D8
:10009000200881280310A10CA00CFF3E03184A2859
:1000A00020088128A20001305B28A20006305B28CE
:1000B000A20004305B28A80023082102031D622847
:1000C00022082002043003180130031902302805E9
:1000D000031DFF3081281030A800A101A001A70C4A
:1000E000A60C031C79282208A00723080318230F55
:1000F000A107A10CA00CA50CA40CA80B6F28240828
:10010000812883130313831264000800C0309F000A
:100110008316031788018901031396018312903017
:1001200098008316243098000A30990083122530F5
:1001300090000B108B108B110B12831681178510FA
:1001400005100515851505168512091089108601FB
:1001500083128601831687100711871108148814EB
:1001600008158815081688160817881783120711AE
:100170002030840060308A010520A0308400503097
:100180008A0105201030840060308A0104209030FC
:10019000840060308A01042086018710831698123B
:1001A00083120C10F3308E000B308F008316A217D1
:1001B0002213831203178D0103138A010B20831668
:1001C000A60026088312F000031701308D000313E8
:1001D0008A010B208316A60026088312F10003175C
:1001E00002308D0003138A010B208316A600260817
:1001F0008312EE00031703308D0003138A010B20D6
:100200008316A60026088312EF00031704308D0022
:1002100003138A010B20FF008830EC001330ED003F
:1002200064008A110A120C1C20290C10F3308E0075
:100230000B308F008A110A12D6248A110A12252146
:100240008A110A1299228A01102964000430831647
:1002500028028A110A128312031C362983162211DE
:10026000A210A80183128A110A1239298316A80A3A
:10027000831264008A110A1283168310A21D83144C
:100280008312831869296A08A0006B08A100A301E2
:1002900032308A0155208A110A12031D5829323042
:1002A000EA020030031C013EEB028A110A1269299E
:1002B0006A08A0006B08A100A30100308A01552044
:1002C0008A110A12031D6929EA01EB018316A211A2
:1002D00083128A110A12E824F60A64008A110A12AB
:1002E000761C75298A110A12762564003C30770243
:1002F0008A110A12031C8329F70183162014831222
:100300008A110A128429F70A0800FA018714831651
:1003100098163A30AA0083128A110A128D226400BC
:100320008A110A1283168310201C831483128318E7
:10033000CC298316FF30A90083128A110A124C229D
:10034000FF30FA066F088316A90083126F08FA06B9
:100350008A110A124C226E088316A90083126E08B5
:10036000FA068A110A124C2271088316A900831218
:100370008A110A124C227108FA0670088316A90025
:1003800083128A110A124C227008FA068316201072
:1003900083128A110A12062A640083162508FF3C7C
:1003A0008A110A128312031DD9298316FE30A50073
:1003B000831283162508A90025088312FA068A11DC
:1003C0000A124C2283162408A90024088312FA0674
:1003D0008A110A124C2283162308A90023088312CB
:1003E000FA068A110A124C226D088316A90083129C
:1003F0008A110A124C226D08FA066C088316A900AD
:1004000083128A110A124C226C08FA0679088316A4
:10041000A90083127908FA068A110A124C22F901FE
:1004200083162208A90083128A110A124C2283160D
:1004300022088312FA0683162B08A9002B088312C0
:10044000FA068A110A124C227F088316A900831229
:100450008A110A124C227F08FA067A088316A9002C
:1004600083128A110A124C2283160D30AA008312BD
:100470008A110A128D2283160A30AA0083128A1169
:100480000A128D220130A100F4308A013320831634
:100490009812831287100800831629088312A0007F
:1004A000A10104308A014D208316A60083128A110F
:1004B0000A1263220F3083162905A60083128A11BF
:1004C0000A1263220800831626080F3C8A110A12BA
:1004D0008312031C8D2A8A110A1274228316AA0021
:1004E00083128A110A128D2A02308A008316260886
:1004F00083127D3E03188A0A82003034313432344C
:100500003334343435343634373438343934413490
:100510004234433444344534463464008A110A1268
:100520000C1A942A8A018D2A83162A0883129900AC
:10053000080064008A110A12981CA22A18121816C0
:10054000FC01080064008A110A128C1AA82A08000B
:1005500064008A110A12181DB62A1A088316A70009
:100560008312FC0108008A110A12BA2A1A0883169B
:10057000A700831264007C08003C8A110A12031D44
:10058000ED2A640083162708403C8A110A12831260
:100590000319CE2AFC018A110A12EC2A4030B80055
:1005A0000130FC0083160130A60083126400143071
:1005B000831626028A110A1283120318EC2A831664
:1005C0002608383E8400831280018316A60A8A1109
:1005D0000A128312031DD62A0800640012307C021E
:1005E0008A110A1203180C2B7C08383E84008316EB
:1005F0002708831280007C08383E84000008F2003F
:1006000064007208403C8A110A12031D0A2B013053
:10061000FC000800FC0A080064007C08123C8A11F7
:100620000A12031DA02C7C08383E8400831627087C
:10063000831280007C08383E84000008F2006400C9
:100640007208403C8A110A12031D292B0130FC005C
:1006500008004030D600FE0183160130A600831248
:1006600064001230831626028A110A1283120318BC
:10067000772BFE0A83162608383E84008312000872
:10068000FD008A110A12A8247808A000A1010430F4
:100690008A014520F2002108F3007E08563E8400BE
:1006A000720880000130831626078312F200F301DE
:1006B000F30D7208383E84000008FD008A110A120A
:1006C000A8247E08563E84000008F20072087804D0
:1006D000F200F3017E08563E84007208800002306A
:1006E0008316A6078A110A128312031C302B40308E
:1006F000FB0083160130A6008312640009308316C4
:1007000026028A110A1283120318962B83162608D2
:10071000563E840083120008F2007208FB0683161E
:10072000A60A8A110A128312031D7D2B64007B081E
:100730005F028A110A1203199F2BFC010800640052
:1007400057087F028A110A120319A82BFC0108001E
:10075000FC015E08F90064005808013C8A110A1285
:10076000031DB32B080064005808023C8A110A12CA
:10077000031DBD2B8A018521080064005808033C35
:100780008A110A12031DE72B8A01852164008A1150
:100790000A1283168310A21D831483128318D12B8F
:1007A000080064008A110A1283168310221E831423
:1007B00083128318DC2B08008316A2142211A801CF
:1007C00083125D088316AB002010831208006400BA
:1007D0005808043C8A110A12031D112C8A01852134
:1007E00064008A110A1283168310A21D83148312D7
:1007F0008318FB2B080064008A110A1283168310E9
:10080000A21E831483128318062C08008316A210DC
:100810002215A80183125D088316AB0020108312F5
:10082000080064005808053C8A110A12031D2F2C89
:100830008316A2102211A8018312861206108316B5
:100840002010A2118312EA01EB018316AC01A10171
:10085000A2172213A30183128A01852108006400D4
:100860005808063C8A110A12031D3F2C83162010DB
:1008700083128A110A12D2268A0185210800640097
:100880005808073C8A110A12031D4F2C83162010AA
:1008900083128A110A12D2268A0185210800640077
:1008A0005808083C8A110A12031D9F2C8A018521D1
:1008B0005908EF006F088316A60083120317033050
:1008C0008D0083160313260883128A011520053034
:1008D0008A0125205A08EE006E088316A6008312AE
:1008E000031702308D0083160313260883128A0132
:1008F000152005308A0125205B08F1007108831658
:10090000A6008312031701308D00831603132608F7
:1009100083128A01152005308A0125205C08F00029
:1009200070088316A600831203178D018316031324
:10093000260883128A01152005308A012520080027
:1009400064008A110A128C1EA72C8A01992A0800B9
:10095000FF30A200A20A22080F3C8A110A12031CCF
:10096000D52C8A110A12BE247D028A110A12031D97
:10097000AA2C2208F8008A110A12D52C04308A0009
:100980002208C53E03188A0A8200303431343234DA
:1009900033343434353436343734383439344134FC
:1009A000423443344434453446340800051464303A
:1009B0008A0132200808ED00851414308A013220A3
:1009C0000808EC00851005108316A80183120800A2
:1009D0008316A80183128A01D6246A08A0006B0836
:1009E000A100A30100308A0155208A110A12031DBB
:1009F000042D8316A210221183128612061083166C
:100A0000A801AB018312080064008A110A12831640
:100A10008310A219831483128318382D64000130C7
:100A2000831623028A110A128312031C372D8A119E
:100A30000A1227266C08A0006D08A1007508A30003
:100A400074088A0155208A110A12031D2F2D83165E
:100A5000A014A210221583128A110A12342D8316B3
:100A6000A010A214221183128316A215831208006B
:100A700064008A110A1283168310A01C8314831247
:100A800083185D2D6C08A0006D08A1007508A300F7
:100A900074088A0152208A110A12031D5A2D8316E6
:100AA000A21022118312861206108316A801A21129
:100AB000AB0183128A110A12752D6C08A0006D0813
:100AC000A1007508A30074088A0158208A110A122F
:100AD000031D752D8316A210221183128612061093
:100AE0008316A801A211AB018312080064008A11C9
:100AF0000A12851D872D8316221483120610861272
:100B00008316A80183128611061186100800831629
:100B1000221064002B08003C8A110A128312031D64
:100B2000942D861106118610640083162B08013C53
:100B30008A110A128312031DA02D86110611861434
:100B4000640083162B08023C8A110A128312031DCB
:100B5000AC2D861106158610640083162B08033C05
:100B60008A110A128312031DB82D861106158614E8
:100B7000640083162B08043C8A110A128312031D99
:100B8000C42D861506118610640083162B08053CBB
:100B90008A110A128312031DD02D861506118614A0
:100BA000640083162B08063C8A110A128312031D67
:100BB000DC2D8615061586106400073083162B027F
:100BC0008A110A128312031CE82D86150615861455
:100BD0006C08A0006D08A1006F08A3006E088A01D0
:100BE00058208A110A12031DFD2D86128316A210A9
:100BF000221683128A110A12072E831622128310DC
:100C0000A2188314831283188616831C86126C081C
:100C1000A0006D08A1007108A30070088A0152208D
:100C20008A110A12031D1C2E061083162211A21609
:100C300083128A110A12262E8316A21283102219F9
:100C40008314831283180614831C0610080083166D
:100C50000310210D4C3E840083120008F400840A26
:100C60000008F50083162108653E84008312000801
:100C70008316AB002108603E840083120008F20056
:100C800064007208013C8A110A12031D552E831656
:100C90000310210D4C3E840083120008EA00840AF0
:100CA0000008EB008A110A12572EEA01EB016400DA
:100CB000831621082C028A110A128312031D6B2E3F
:100CC00064008A110A1283168310A21F83148312F0
:100CD00083186B2E0800640083162108043C8A11D7
:100CE0000A128312031D7A2E8316A10183128A1120
:100CF0000A127D2E8316A10A83126400831621082E
:100D00002C028A110A128312031D8C2E8316A2173D
:100D100083128A110A128F2E831622138312640003
:100D200083162C0821028A110A12831203189D2EA1
:100D3000831621082C02A3008312640083162C085A
:100D400021028A110A128312031DBA2E64008A112D
:100D50000A1283168310221F831483128318B72E5E
:100D600083160530A30083128A110A12BA2E831645
:100D7000A30183126400831621082C028A110A122F
:100D800083120318D12E83162108053C8312F2002A
:100D90000030031CFF3EF300720883162C07A300EB
:100DA000831208008316A801640021082C028A110E
:100DB0000A128312031DE72E64008A110A12831699
:100DC0008310221F831483128318E72E08008316D2
:100DD0002C08653E840083125D08800083162C0871
:100DE0008312A600A7010230A200A3018A016B2092
:100DF000F2002508F300F20A0319F30A72084C3EC8
:100E000084005908800083162C088312A600A701CD
:100E10000230A200A3018A016B20F2002508F30032
:100E200072084C3E84005A08800064005808063C52
:100E30008A110A12031D262F83162C08603E840097
:100E40008312013080008A110A122C2F83162C087D
:100E5000603E840083128001640083162C08043CE9
:100E60008A110A128312031D3B2F8316AC018312D1
:100E70008A110A123E2F8316AC0A8312640083166D
:100E800021082C028A110A128312031D4D2F83168A
:100E9000221783128A110A12502F8316A21383126B
:100EA000640083162C0821028A110A128312031887
:100EB0005E2F831621082C02A30083126400831680
:100EC0002C0821028A110A128312031D7B2F640051
:100ED0008A110A1283168310221F83148312831827
:100EE000782F83160530A30083128A110A127B2FF4
:100EF0008316A30183126400831621082C028A1131
:100F00000A1283120318922F83162108053C8312BC
:100F1000F2000030031CFF3EF300720883162C071A
:0C0F2000A3008312080063008A01932FD5
:02400E00FC2F85
:00000001FF
