:020000040000FA
:02000000862850
:0800080083178001840AFF3E0A
:10001000031D05288128031783168C010C148312F5
:100020000C0803178D0A8128030103178C0083161F
:100030008C010C1555308D00AA308D008C148C1855
:100040001F280C1183128D0A8128A301A200FF3002
:10005000A207031CA307031C81280330A100E6307C
:1000600033202728A101FC3EA000A109031C3E2843
:10007000FF300000A00703183928A0076400A10F73
:10008000382808000310A00DA10DFF3E03184228D8
:10009000200881280310A10CA00CFF3E03184A2859
:1000A00020088128A20001305B28A20006305B28CE
:1000B000A20004305B28A80023082102031D622847
:1000C00022082002043003180130031902302805E9
:1000D000031DFF3081281030A800A101A001A70C4A
:1000E000A60C031C79282208A00723080318230F55
:1000F000A107A10CA00CA50CA40CA80B6F28240828
:10010000812883130313831264000800C0309F000A
:100110008316031788018901031396018312903017
:1001200098008316243098000A30990083122530F5
:1001300090000B108B108B110B12831681178510FA
:1001400005100515851505168512091089108601FB
:1001500083128601831687100711871108148814EB
:1001600008158815081688160817881783120711AE
:100170002030840060308A010520A0308400503097
:100180008A0105201030840060308A0104209030FC
:10019000840060308A01042086018710831698123B
:1001A00083120C10F3308E000B308F008316A117D2
:1001B0002113831203178D0103138A010B20831669
:1001C000A50025088312F000031701308D000313EA
:1001D0008A010B208316A50025088312F10003175E
:1001E00002308D0003138A010B208316A500250819
:1001F0008312EE00031703308D0003138A010B20D6
:100200008316A50025088312EF008830EC00133018
:10021000ED0064008A110A120C1C19290C10F3302D
:100220008E000B308F008A110A12C2248A110A1222
:100230001E218A110A1289228A01092964000430C8
:10024000831627028A110A128312031C2F29831690
:100250002111A110A70183128A110A1232298316D3
:10026000A70A831264008A110A1283168310A11D43
:1002700083148312831862296A08A0006B08A10006
:10028000A30132308A0155208A110A12031D512917
:100290003230EA020030031C013EEB028A110A12DE
:1002A00062296A08A0006B08A100A30100308A013E
:1002B00055208A110A12031D6229EA01EB018316F7
:1002C000A11183128A110A12D424F60A64008A1139
:1002D0000A12761C6E298A110A125D2564003C30D0
:1002E00077028A110A12031C7A29F7017F148A11F6
:1002F0000A127B29F70A0800FA0187148316981658
:100300003A30A90083128A110A127D2264008A11F0
:100310000A127F1CBC298316FF30A80083128A11A1
:100320000A123C22FF30FA066F088316A8008312D7
:100330006F08FA068A110A123C226E088316A8007A
:1003400083126E08FA068A110A123C22710883167B
:10035000A80083128A110A123C227108FA0670085A
:100360008316A80083128A110A123C227008FA062A
:100370007F108A110A12F629640083162408FF3CB4
:100380008A110A128312031DC9298316FE30A400A4
:10039000831283162408A80024088312FA068A11FF
:1003A0000A123C2283162308A80023088312FA06A7
:1003B0008A110A123C2283162208A80022088312FE
:1003C000FA068A110A123C226D088316A8008312CD
:1003D0008A110A123C226D08FA066C088316A800DE
:1003E00083128A110A123C226C08FA0679088316D5
:1003F000A80083127908FA068A110A123C22F90130
:1004000083162108A80083128A110A123C2283163F
:1004100021088312FA0683162A08A8002A088312E4
:10042000FA068A110A123C2283160130A8008312B0
:100430008A110A123C220130FA067A088316A800B3
:1004400083128A110A123C2283160D30A9008312EE
:100450008A110A127D2283160A30A90083128A119A
:100460000A127D220130A100F4308A013320831664
:100470009812831287100800831628088312A000A0
:10048000A10104308A014D208316A50083128A1130
:100490000A1253220F3083162805A50083128A11F1
:1004A0000A1253220800831625080F3C8A110A12EB
:1004B0008312031C7D2A8A110A1264228316A90062
:1004C00083128A110A127D2A02308A0083162508B7
:1004D00083126D3E03188A0A82003034313432347C
:1004E00033343434353436343734383439344134B1
:1004F0004234433444344534463464008A110A1289
:100500000C1A842A8A017D2A8316290883129900ED
:10051000080064008A110A12981C922A18121816F0
:10052000FC01080064008A110A128C1A982A08003B
:1005300064008A110A12181DA62A1A088316A6003A
:100540008312FC0108008A110A12AA2A1A088316CB
:10055000A600831264007C08003C8A110A12031D65
:10056000DD2A640083162608403C8A110A12831291
:100570000319BE2AFC018A110A12DC2A4030B80095
:100580000130FC0083160130A50083126400143092
:10059000831625028A110A1283120318DC2A831695
:1005A0002508383E8400831280018316A50A8A112B
:1005B0000A128312031DC62A0800640012307C024E
:1005C0008A110A120318FC2A7C08383E840083161C
:1005D0002608831280007C08383E84000008F20060
:1005E00064007208403C8A110A12031DFA2A013085
:1005F000FC000800FC0A080064007C08123C8A1118
:100600000A12031D8C2C7C08383E840083162608B1
:10061000831280007C08383E84000008F2006400E9
:100620007208403C8A110A12031D192B0130FC008C
:1006300008004030D600FE0183160130A500831269
:1006400064001230831625028A110A1283120318DD
:10065000672BFE0A83162508383E840083120008A3
:10066000FD008A110A1294247808A000A101043028
:100670008A014520F2002108F3007E08563E8400DE
:10068000720880000130831625078312F200F301FF
:10069000F30D7208383E84000008FD008A110A122A
:1006A00094247E08563E84000008F2007208780404
:1006B000F200F3017E08563E84007208800002308A
:1006C0008316A5078A110A128312031C202B4030BF
:1006D000FB0083160130A5008312640009308316E5
:1006E00025028A110A1283120318862B8316250805
:1006F000563E840083120008F2007208FB0683163F
:10070000A50A8A110A128312031D6D2B64007B084F
:100710005F028A110A1203198F2BFC010800640082
:100720005708013C8A110A120319982BFC01080092
:10073000FC015E08F90064005808013C8A110A12A5
:10074000031DA32B080064005808023C8A110A12FA
:10075000031DAD2B8A017C21080064005808033C6E
:100760008A110A12031DD72B8A017C2164008A1189
:100770000A1283168310A11D831483128318C12BC0
:10078000080064008A110A1283168310211E831444
:1007900083128318CC2B08008316A1142111A70102
:1007A00083125D088316AA0083127F10080064007C
:1007B0005808043C8A110A12031D012C8A017C216D
:1007C00064008A110A1283168310A11D83148312F8
:1007D0008318EB2B080064008A110A128316831019
:1007E000A11E831483128318F62B08008316A11010
:1007F0002115A70183125D088316AA0083127F10BA
:10080000080064005808053C8A110A12031D1F2CB9
:100810008316A1102111A7018312061086107F10E4
:100820008316A1118312EA01EB018316AB01A0012B
:10083000A1172113A20183128A017C210800640000
:100840005808063C8A110A12031D2D2C7F108A11AC
:100850000A12B9268A017C21080064005808073C66
:100860008A110A12031D3B2C7F108A110A12B92625
:100870008A017C21080064005808083C8A110A1289
:10088000031D8B2C8A017C215908EF006F08831609
:10089000A5008312031703308D0083160313250868
:1008A00083128A01152005308A0125205A08EE009E
:1008B0006E088316A5008312031702308D0083167D
:1008C0000313250883128A01152005308A0125208B
:1008D0005B08F10071088316A5008312031701302D
:1008E0008D0083160313250883128A011520053015
:1008F0008A0125205C08F00070088316A500831289
:1009000003178D0183160313250883128A0115200E
:1009100005308A012520080064008A110A128C1E05
:10092000932C8A01892A0800FF30A200A20A22081B
:100930000F3C8A110A12031CC12C8A110A12AA2424
:100940007D028A110A12031D962C2208F8008A11D2
:100950000A12C12C04308A002208B13E03188A0A08
:100960008200303431343234333434343534363434
:1009700037343834393441344234433444344534E0
:1009800046340800051464308A0132200808ED005E
:10099000851414308A0132200808EC0085100510F7
:1009A0008316A701831208008316A70183128A0108
:1009B000C2246A08A0006B08A100A30100308A01CC
:1009C00055208A110A12031DF02C8316A110211143
:1009D0008312061086108316A701AA01831208004D
:1009E00064008A110A1283168310A11983148312DA
:1009F0008318242D64000130831622028A110A1202
:100A00008312031C232D8A110A120E266C08A000E3
:100A10006D08A1007508A30074088A0155208A1189
:100A20000A12031D1B2DFF148316A110211583121A
:100A30008A110A12202DFF108316A114211183128E
:100A40008316A1158312080064008A110A12FF1C84
:100A5000442D6C08A0006D08A1007508A30074085F
:100A60008A0152208A110A12031D412D8316A110FA
:100A700021118312061086108316A701A111AA0165
:100A800083128A110A125C2D6C08A0006D08A10067
:100A90007508A30074088A0158208A110A12031DE0
:100AA0005C2D8316A1102111831206108610831667
:100AB000A701A111AA018312080064008A110A1279
:100AC000851D6E2D83162114831286100610831641
:100AD000A701831206128611061108008316211041
:100AE00064002A08003C8A110A128312031D7B2D20
:100AF000061286110611640083162A08013C8A1129
:100B00000A128312031D872D061286110615640032
:100B100083162A08023C8A110A128312031D932DA0
:100B2000061286150611640083162A08033C8A11F2
:100B30000A128312031D9F2D0612861506156400E6
:100B400083162A08043C8A110A128312031DAB2D56
:100B5000061686110611640083162A08053C8A11C0
:100B60000A128312031DB72D06168611061564009E
:100B700083162A08063C8A110A128312031DC32D0C
:100B80000616861506116400073083162A028A119C
:100B90000A128312031CCF2D0616861506156C0843
:100BA000A0006D08A1006F08A3006E088A015820FC
:100BB0008A110A12031DE42D06108316A1102116B6
:100BC00083128A110A12EE2D831621128310A118A6
:100BD0008314831283180614831C06106C08A0006B
:100BE0006D08A1007108A30070088A0152208A11C3
:100BF0000A12031D032E861083162111A1168312DB
:100C00008A110A120D2E8316A11283102119831442
:100C1000831283188614831C861008008316031021
:100C2000200D4C3E840083120008F400840A000862
:100C3000F50083162008653E8400831200088316A1
:100C4000AA002008603E840083120008F2006400BD
:100C50007208013C8A110A12031D3C2E83160310F0
:100C6000200D4C3E840083120008EA00840A00082C
:100C7000EB008A110A123E2EEA01EB016400831692
:100C800020082B028A110A128312031D522E6400BF
:100C90008A110A1283168310A11F831483128318EA
:100CA000522E0800640083162008043C8A110A12A0
:100CB0008312031D612E8316A00183128A110A126A
:100CC000642E8316A00A83126400831620082B0268
:100CD0008A110A128312031D732E8316A117831221
:100CE0008A110A12762E831621138312640083164A
:100CF0002B0820028A110A1283120318842E8316ED
:100D000020082B02A2008312640083162B08200205
:100D10008A110A128312031DA12E64008A110A127D
:100D200083168310211F8314831283189E2E83162B
:100D30000530A20083128A110A12A12E8316A20185
:100D400083126400831620082B028A110A12831270
:100D50000318B82E83162008053C8312F2000030D9
:100D6000031CFF3EF300720883162B07A2008312B8
:100D700008008316A701640020082B028A110A12BA
:100D80008312031DCE2E64008A110A12831683106B
:100D9000211F831483128318CE2E080083162B087C
:100DA000653E840083125D08800083162B08831241
:100DB000A600A7010230A200A3018A016B20F20065
:100DC0002508F300F20A0319F30A72084C3E840066
:100DD0005908800083162B088312A600A701023051
:100DE000A200A3018A016B20F2002508F30072081B
:100DF0004C3E84005A08800064005808063C8A1162
:100E00000A12031D0D2F83162B08603E84008312E7
:100E1000013080008A110A12132F83162B08603EBE
:100E2000840083128001640083162B08043C8A111D
:100E30000A128312031D222F8316AB0183128A111B
:100E40000A12252F8316AB0A83126400831620082A
:100E50002B028A110A128312031D342F83162117C5
:100E600083128A110A12372F8316A113831264008A
:100E700083162B0820028A110A1283120318452FA9
:100E8000831620082B02A2008312640083162B080D
:100E900020028A110A128312031D622F64008A1134
:100EA0000A1283168310211F8314831283185F2F65
:100EB00083160530A20083128A110A12622F83164C
:100EC000A20183126400831620082B028A110A12E1
:100ED00083120318792F83162008053C8312F20031
:100EE0000030031CFF3EF300720883162B07A2009C
:0A0EF0008312080063008A017A2FC4
:02400E00FC2F85
:00000001FF
