:020000040000FA
:02000000862850
:0800080083178001840AFF3E0A
:10001000031D05288128031783168C010C148312F5
:100020000C0803178D0A8128030103178C0083161F
:100030008C010C1555308D00AA308D008C148C1855
:100040001F280C1183128D0A8128A301A200FF3002
:10005000A207031CA307031C81280330A100E6307C
:1000600033202728A101FC3EA000A109031C3E2843
:10007000FF300000A00703183928A0076400A10F73
:10008000382808000310A00DA10DFF3E03184228D8
:10009000200881280310A10CA00CFF3E03184A2859
:1000A00020088128A20001305B28A20006305B28CE
:1000B000A20004305B28A80023082102031D622847
:1000C00022082002043003180130031902302805E9
:1000D000031DFF3081281030A800A101A001A70C4A
:1000E000A60C031C79282208A00723080318230F55
:1000F000A107A10CA00CA50CA40CA80B6F28240828
:10010000812883130313831264000800C0309F000A
:100110008316031788018901031396018312903017
:1001200098008316243098000A30990083122530F5
:1001300090000B108B108B110B12831681178510FA
:1001400005100515851505168512091089108601FB
:1001500083128601831687100711871108148814EB
:1001600008158815081688160817881783120711AE
:100170002030840060308A010520A0308400503097
:100180008A0105201030840060308A0104209030FC
:10019000840060308A01042086018710831698123B
:1001A00083120C10F3308E000B308F00FA177A1385
:1001B00003178D0103138A010B20FE007E08E9005E
:1001C000031701308D0003138A010B20FE007E0807
:1001D000EA00031702308D0003138A010B20FE0092
:1001E0007E08E700031703308D0003138A010B20FC
:1001F000FE007E08E800E5017D30E60064008A111B
:100200000A120C1C0E290C10F3308E000B308F00DC
:100210008A110A1221248A110A1213218A110A1240
:1002200042228A01FE2864000430831620028A11CB
:100230000A128312031C24297A11FA108316A001D2
:1002400083128A110A1227298316A00A83128A119F
:100250000A124A24EF0A64008A110A126F1C332919
:100260008A110A12AF2464003C3070028A110A120B
:10027000031C3F29F00178148A110A124029F00A60
:100280000800F3018714831698163A30A2008312EF
:100290008A110A12362264008A110A12781C8129F6
:1002A0008316FF30A10083128A110A12FB21FF304E
:1002B000F30668088316A10083126808F3068A1102
:1002C0000A12FB2167088316A10083126708F30650
:1002D0008A110A12FB216A088316A10083128A116F
:1002E0000A12FB216A08F30669088316A10083122B
:1002F0008A110A12FB216908F30678108A110A1282
:10030000B72964007D08FF3C8A110A12031D8A295F
:10031000FE30FD007D088316A10083127D08F306E0
:100320008A110A12FB217C088316A10083127C0823
:10033000F3068A110A12FB217B088316A10083129F
:100340007B08F3068A110A12FB2166088316A100B6
:1003500083128A110A12FB216608F30665088316C8
:10036000A10083128A110A12FB216508F3067208A4
:100370008316A10083127208F3068A110A12FB2168
:10038000F2017A088316A10083128A110A12FB2156
:100390007A08F30683162308A10023088312F306C4
:1003A0008A110A12FB2183160130A10083128A11DF
:1003B0000A12FB210130F30673088316A100831291
:1003C0008A110A12FB2183160D30A20083128A11B2
:1003D0000A12362283160A30A20083128A110A12E8
:1003E00036220130A100F4308A013320831698129E
:1003F000831287100800831621088312A000A10130
:1004000004308A014D20FE008A110A1210220F309A
:10041000831621058312FE008A110A121022080099
:100420007E080F3C8A110A12031C362A8A110A120E
:100430001F228316A20083128A110A12362A023062
:100440008A007E08263E03188A0A8200303431343E
:100450003234333434343534363437343834393450
:1004600041344234433444344534463464008A11C0
:100470000A120C1A3D2A8A01362A83162208831290
:100480009900080064008A110A12981C4B2A18125D
:100490001816F501080064008A110A128C1A512AF4
:1004A000080064008A110A12181D5D2A1A08FF004C
:1004B000F50108008A110A125F2A1A08FF00640079
:1004C0007508003C8A110A12031D882A64007F08FF
:1004D000403C8A110A120319712AF5018A110A1285
:1004E000872A4030B8000130F5000130FE0064007A
:1004F00014307E028A110A120318872A7E08383EB9
:1005000084008001FE0A8A110A12031D772A08005E
:100510006400123075028A110A120318A52A7508A0
:10052000383E84007F0880007508383E840000084B
:10053000EB0064006B08403C8A110A12031DA32AD9
:100540000130F5000800F50A080064007508123C47
:100550008A110A12031DEB2B7508383E84007F08B0
:1005600080007508383E84000008EB0064006B08CA
:10057000403C8A110A12031DC02A0130F500080010
:100580004030D600F7010130FE00640012307E02D8
:100590008A110A120318042BF70A7E08383E8400D9
:1005A0000008F6008A110A12F3237108A000A101C5
:1005B00004308A014520EB002108EC007708563E04
:1005C00084006B08800001307E07EB00EC01EC0D2D
:1005D0006B08383E84000008F6008A110A12F323E3
:1005E0007708563E84000008EB006B087104EB00AE
:1005F000EC017708563E84006B0880000230FE074D
:100600008A110A12031CC52A4030F4000130FE0092
:10061000640009307E028A110A1203181B2B7E081F
:10062000563E84000008EB006B08F406FE0A8A11AF
:100630000A12031D082B640074085F028A110A1253
:100640000319242BF501080064005708013C8A11A6
:100650000A1203192D2BF5010800F5015E08F200BE
:1006600064005808013C8A110A12031D382B080047
:1006700064005808023C8A110A12031D422B8A01A9
:100680004121080064005808033C8A110A12031D26
:10069000622B8A01412164008A110A12FA1D512B32
:1006A000080064008A110A127A1E572B0800FA14F7
:1006B0007A118316A00183125D088316A3008312AA
:1006C0007810080064005808043C8A110A12031DBF
:1006D000822B8A01412164008A110A12FA1D712BB2
:1006E000080064008A110A12FA1E772B0800FA101B
:1006F0007A158316A00183125D088316A300831266
:100700007810080064005808053C8A110A12031D7D
:100710009C2BFA107A118316A00183120610861002
:100720007810FA118316A4018312F901FA177A13CB
:10073000FB018A014121080064005808073C8A1126
:100740000A12031DAA2B78108A110A12C1258A01E8
:100750004121080064005808083C8A110A12031D50
:10076000EA2B8A0141215908E8006808FE000317B6
:1007700003308D0003137E088A01152005308A019D
:1007800025205A08E7006708FE00031702308D0095
:1007900003137E088A01152005308A0125205B0895
:1007A000EA006A08FE00031701308D0003137E087B
:1007B0008A01152005308A0125205C08E9006908B6
:1007C000FE0003178D0103137E088A0115200530F2
:1007D0008A012520080064008A110A128C1EF22B5F
:1007E0008A01422A0800FF30A200A20A22080F3C18
:1007F0008A110A12031C202C8A110A12092476027B
:100800008A110A12031DF52B2208F1008A110A121F
:10081000202C04308A002208103E03188A0A820025
:10082000303431343234333434343534363437348C
:100830003834393441344234433444344534463412
:10084000080064008A110A12061C2B2C0A30E507E6
:100850000318E60A080064008A110A12861C372C65
:100860000A30E5020030031C013EE60208000800E1
:10087000051464308A0132200808E600851414301B
:100880008A0132200808E500851005108316A001B2
:10089000831208008316A00183128A0121246400B8
:1008A0008A110A12FA19762C640001307B028A112F
:1008B0000A12031C752C8A110A1250256508A00023
:1008C0006608A1006E08A3006D088A0155208A11F0
:1008D0000A12031D712CF814FA107A158A110A12E3
:1008E000742CF810FA147A11FA15080064008A11B1
:1008F0000A12F81C962C6508A0006608A1006E0874
:10090000A3006D088A0152208A110A12031D932C3C
:10091000FA107A11061086108316A0018312FA11BC
:100920000612861106118A110A12AE2C6508A00063
:100930006608A1006E08A3006D088A0158208A117C
:100940000A12031DAE2CFA107A11061086108316B7
:10095000A0018312FA110612861106110800640024
:100960008A110A12851DBE2C7A1486100610831671
:10097000A001831206128611061108007A10640085
:1009800083162308003C8A110A128312031DCB2C04
:10099000061286110611640083162308013C8A1191
:1009A0000A128312031DD72C061286110615640045
:1009B00083162308023C8A110A128312031DE32CBA
:1009C000061286150611640083162308033C8A115B
:1009D0000A128312031DEF2C0612861506156400F9
:1009E00083162308043C8A110A128312031DFB2C70
:1009F000061686110611640083162308053C8A1129
:100A00000A128312031D072D0616861106156400AF
:100A100083162308063C8A110A128312031D132D24
:100A200006168615061164000730831623028A1104
:100A30000A128312031C1F2D06168615061565085B
:100A4000A0006608A1006808A30067088A01582072
:100A50008A110A12031D322D0610FA107A168A1115
:100A60000A12372D7A12FA180614FA1C06106508B5
:100A7000A0006608A1006A08A30069088A01522044
:100A80008A110A12031D4A2D86107A11FA168A114C
:100A90000A124F2DFA127A1986147A1D8610080050
:100AA0000310790D4C3E84000008ED00840A000814
:100AB000EE007908603E840000088316A3006400FD
:100AC00083127908831624028A110A128312031DE5
:100AD0006F2D64008A110A12FA1F6F2D080064003E
:100AE0007908043C8A110A12031D7A2DF9018A1132
:100AF0000A127B2DF90A64007908831624028A11F0
:100B00000A128312031D882DFA178A110A12892DE1
:100B10007A13640083162408831279028A110A1258
:100B20000318972D7908831624028312FB006400B2
:100B300083162408831279028A110A12031DAB2D31
:100B400064008A110A127A1FAA2D0530FB008A114F
:100B50000A12AB2DFB0164007908831624028A1166
:100B60000A1283120318C02D7908053CEB000030EF
:100B7000031CFF3EEC006B08831624078312FB0066
:100B800008008316A00164008312790883162402EA
:100B90008A110A128312031DD32D64008A110A12CE
:100BA0007A1FD32D080083162408603E8400831228
:100BB0005D088000831624088312A600A701023076
:100BC000A200A3018A016B20EB002508EC00EB0AD0
:100BD0000319EC0A6B084C3E840059088000831608
:100BE00024088312A600A7010230A200A3018A01F3
:100BF0006B20EB002508EC006B084C3E84005A0883
:100C00008000640083162408043C8A110A128312AF
:100C1000031D102E8316A40183128A110A12132EAB
:100C20008316A40A831264007908831624028A11A9
:100C30000A128312031D202E7A178A110A12212EFE
:100C4000FA13640083162408831279028A110A12A7
:100C500003182F2E7908831624028312FB006400E8
:100C600083162408831279028A110A12031D432E67
:100C700064008A110A127A1F422E0530FB008A1185
:100C80000A12432EFB0164007908831624028A119C
:100C90000A1283120318582E7908053CEB00003025
:100CA000031CFF3EEC006B08831624078312FB0035
:080CB000080063008A01592EBF
:02400E00FC2F85
:00000001FF
