:020000040000FA
:020000008F2847
:0800080083178001840AFF3E0A
:10001000031D05288A28031783168C010C148312EC
:100020000C0803178D0A8A28030103178C00831616
:100030008C010C1555308D00AA308D008C148C1855
:100040001F280C1183128D0A8A28A301A200FF30F9
:10005000A207031CA307031C8A280330A100E63073
:1000600033202728A101FC3EA000A109031C3E2843
:10007000FF300000A00703183928A0076400A10F73
:10008000382808000310A00DA10DFF3E03184228D8
:1000900020088A280310A10CA00CFF3E03184A2850
:1000A00020088A28A20001305D28A20006305D28C1
:1000B000A20004305D28A2000530A8002308210218
:1000C000031D64282208200204300318013003199C
:1000D00002302805031DFF308A280038031DFF3039
:1000E0000405031DFF308A281030A800A101A001DB
:1000F000A70CA60C031C82282208A00723080318BB
:10010000230FA107A10CA00CA50CA40CA80B782808
:1001100024088A2883130313831264000800C03064
:100120009F00831603178801890103139601831228
:10013000903098008316243098000A30990083127A
:10014000253090000B108B108B110B12831681172A
:1001500085100510051585150516851209108910DD
:1001600086018312860183168710071187110814F0
:10017000881408158815081688160817881783121A
:1001800007112030840060308A010520A0308400EF
:1001900050308A0105201030840060308A0104202C
:1001A0009030840060308A01042086018710831615
:1001B000981283120C10F3308E000B308F008316D0
:1001C000A0172013831203178D0103138A010B203C
:1001D0008316A40024088312EB00031701308D005E
:1001E00003138A010B208316A40024088312EC0059
:1001F000031702308D0003138A010B208316A4001D
:1002000024088312E900031703308D0003138A01C9
:100210000B208316A40024088312EA00E7017D3036
:10022000E800EB01EC01FF30E900FF30EA000614C2
:1002300086140330A300E8308A01262006108610B9
:1002400064008A110A120C1C30290C10F3308E0045
:100250000B308F008A110A12E6248A110A12352106
:100260008A110A12C2228A012029640004308316EE
:1002700026028A110A128312031C462983162011B2
:10028000A010A60183128A110A1249298316A60A10
:10029000831264008A110A1283168310A01D83142E
:1002A0008312831856298A110A120F25F50A640051
:1002B0008A110A12751C5F298A110A12CB25640063
:1002C0003C3076028A110A12031C6B29F6017E1457
:1002D0008A110A126C29F60A0800F901871483169C
:1002E00098163A30A80083128A110A12B6226400C6
:1002F0008A110A127E1CAD298316FF30A7008312D3
:100300008A110A127522FF30F9066A088316A700BF
:1003100083126A08F9068A110A127522690883167F
:10032000A70083126908F9068A110A1275226C085F
:100330008316A70083128A110A1275226C08F90627
:100340006B088316A70083128A110A1275226B08A4
:10035000F9067E108A110A12272A640083162308E0
:10036000FF3C8A110A128312031DBA298316FE303C
:10037000A300831283162308A70023088312F9061B
:100380008A110A12752283162208A70022088312F6
:10039000F9068A110A12752264008316290883124D
:1003A0007F028A110A120318DA297F0883162902AC
:1003B000A100831264008316290883127F028A1128
:1003C0000A12031DF72964008A110A12831683108A
:1003D000201F831483128318F42983160530A1008B
:1003E00083128A110A12F7298316A101831264006D
:1003F0007F08831629028A110A12831203180C2A15
:100400007F08043CED000030031CFF3EEE006D0849
:1004100083162907A100831283162108A70021084B
:100420008312F9068A110A12752268088316A7003A
:1004300083128A110A1275226808F9066708831662
:10044000A70083128A110A1275226708F906780834
:100450008316A70083127808F9068A110A127522FA
:10046000F80183162008A70083128A110A12752248
:10047000831620088312F9067F08603E8400000876
:100480008316A70083127F08603E84000008ED00F9
:100490006D08F9068A110A12752283160130A70029
:1004A00083128A110A1275220130F906790883161F
:1004B000A70083128A110A12752283160D30A80034
:1004C00083128A110A12B62283160A30A8008312F8
:1004D0008A110A12B6220130A100F4308A013320B9
:1004E0008316981283128710080083162708831238
:1004F000A000A10104308A014D208316A4008312BC
:100500008A110A128C220F3083162705A400831249
:100510008A110A128C220800831624080F3C8A11C3
:100520000A128312031CB62A8A110A129D2283160C
:10053000A80083128A110A12B62A02308A00831692
:1005400024088312A63E03188A0A8200303431340C
:10055000323433343434353436343734383439344F
:1005600041344234433444344534463464008A11BF
:100570000A120C1ABD2A8A01B62A83162808831289
:100580009900080064008A110A12981CCB2A1812DC
:100590001816FB01080064008A110A128C1AD12A6D
:1005A000080064008A110A12181DDF2A1A0883162F
:1005B000A5008312FB0108008A110A12E32A1A0817
:1005C0008316A500831264007B08003C8A110A127E
:1005D000031D162B640083162508403C8A110A125D
:1005E00083120319F72AFB018A110A12152B4030D6
:1005F000B8000130FB0083160130A40083126400B0
:100600001430831624028A110A1283120318152B40
:1006100083162408383E8400831280018316A40ABE
:100620008A110A128312031DFF2A08006400123087
:100630007B028A110A120318352B7B08383E84008E
:1006400083162508831280007B08383E840000084A
:10065000ED0064006D08403C8A110A12031D332B23
:100660000130FB000800FB0A080064007B08123C14
:100670008A110A12031DB02C7B08383E84008316B1
:100680002508831280007B08383E84000008ED00B6
:1006900064006D08403C8A110A12031D522B013080
:1006A000FB0008004030CC00FD0183160130A4009F
:1006B000831264001230831624028A110A128312F4
:1006C0000318A02BFD0A83162408383E84008312E9
:1006D0000008FC008A110A12B8247708A000A101C2
:1006E00004308A014520ED002108EE007D084C3ED3
:1006F00084006D0880000130831624078312ED000A
:10070000EE01EE0D6D08383E84000008FC008A11F1
:100710000A12B8247D084C3E84000008ED006D08E4
:100720007704ED00EE017D084C3E84006D088000EA
:1007300002308316A4078A110A128312031C592B54
:100740004030FA0083160130A4008312640009309F
:10075000831624028A110A1283120318BF2B8316F0
:1007600024084C3E840083120008ED006D08FA0650
:100770008316A40A8A110A128312031DA62B640091
:100780007A0855028A110A120319C82BFB010800C6
:1007900064004D08013C8A110A120319D12BFB0198
:1007A0000800FB015408F80064004E08013C8A115F
:1007B0000A12031DDC2B080064004E08023C8A115B
:1007C0000A12031DE62B8A016D21080064004E0801
:1007D000033C8A110A12031D112C8A016D21640049
:1007E0008A110A1283168310A01D831483128318A2
:1007F000FA2B080064008A110A1283168310201E47
:10080000831483128318052C08008316A01420116A
:10081000A60183127F08603E8400530880007E108A
:10082000080064004E08043C8A110A12031D3C2C87
:100830008A016D2164008A110A1283168310A01D9B
:10084000831483128318252C080064008A110A126D
:1008500083168310A01E831483128318302C080083
:100860008316A0102015A60183127F08603E840025
:10087000530880007E10080064004E08053C8A1171
:100880000A12031D512C8316A0102011A6018312F9
:10089000061086107E108316A01183128A016D2126
:1008A000080064004E08073C8A110A12031D5F2CE1
:1008B0007E108A110A12C9268A016D21080064007F
:1008C0004E08083C8A110A12031DAF2C8A016D21C3
:1008D0004F08EA006A088316A40083120317033046
:1008E0008D0083160313240883128A011520053016
:1008F0008A0125205008E90069088316A4008312A4
:10090000031702308D0083160313240883128A0113
:10091000152005308A0125205108EC006C0883164B
:10092000A4008312031701308D00831603132408DB
:1009300083128A01152005308A0125205208EB0018
:100940006B088316A400831203178D01831603130B
:10095000240883128A01152005308A012520080009
:1009600064008A110A128C1EB72C8A01C22A080060
:10097000FF30A200A20A22080F3C8A110A12031CAF
:10098000E52C8A110A12CE247C028A110A12031D58
:10099000BA2C2208F7008A110A12E52C04308A00CA
:1009A0002208D53E03188A0A8200303431343234AA
:1009B00033343434353436343734383439344134DC
:1009C00042344334443445344634080064008A11C8
:1009D0000A12061CF02C0A30E7070318E80A080080
:1009E00064008A110A12861CFC2C0A30E7020030CF
:1009F000031C013EE80208000800051464308A0167
:100A000032200808E800851414308A0132200808D2
:100A1000E700851005108316A601831208008316CF
:100A2000A60183128A01E62464008A110A12FE1CC0
:100A3000732D03107F0D563E84000008ED00840ADC
:100A40000008EE006708A0006808A1006E08A30077
:100A50006D088A0152208A110A12031D702D8A1115
:100A60000A12962664008A110A1283168310A01BAC
:100A7000831483128318632D03107F0D563E840068
:100A80000008ED00840A0008EE006708A00068086E
:100A9000A1006E08A3006D088A0155208A110A1270
:100AA000031D5A2DFE148316A010201583128A11DF
:100AB0000A125F2DFE108316A01420118312080065
:100AC0008A110A12702D8316A010201183120610AD
:100AD00086108316A601A011831206128611061134
:100AE0008A110A12CA2D03107F0D563E8400000899
:100AF000ED00840A0008EE006708A0006808A10065
:100B00006E08A3006D088A0158208A110A12031D7D
:100B1000CA2D8A110A12962664008A110A128316B7
:100B20008310A01B831483128318BD2D03107F0D27
:100B3000563E84000008ED00840A0008EE006708B5
:100B4000A0006808A1006E08A3006D088A01552066
:100B50008A110A12031DB42DFE148316A01020154D
:100B600083128A110A12B92DFE108316A0142011C7
:100B7000831208008A110A12CA2D8316A0102011B0
:100B80008312061086108316A601A0118312061286
:100B900086110611080064008A110A12851DDC2DD9
:100BA000831620148312861006108316A601831262
:100BB00006128611061108008316201083127F0882
:100BC000603E84000008ED0064006D08003C8A115E
:100BD0000A12031DEE2D0612861106117F08603ED3
:100BE00084000008ED0064006D08013C8A110A12BF
:100BF000031DFD2D0612861106157F08603E840038
:100C00000008ED0064006D08023C8A110A12031D01
:100C10000C2E0612861506117F08603E840000081F
:100C2000ED0064006D08033C8A110A12031D1B2E9F
:100C30000612861506157F08603E84000008ED0048
:100C400064006D08043C8A110A12031D2A2E061640
:100C5000861106117F08603E84000008ED006400E4
:100C60006D08053C8A110A12031D392E06168611DD
:100C700006157F08603E84000008ED0064006D08E2
:100C8000063C8A110A12031D482E06168615061107
:100C90007F08603E84000008ED00640007306D02AC
:100CA0008A110A12031C572E0616861506156708A8
:100CB000A0006808A1006A08A30069088A015820FA
:100CC0008A110A12031D6C2E06108316A01020161E
:100CD00083128A110A12762E831620128310A0180E
:100CE0008314831283180614831C06106708A0005F
:100CF0006808A1006C08A3006B088A0152208A11C1
:100D00000A12031D8B2E861083162011A016831243
:100D10008A110A12952E8316A012831020198314AB
:100D2000831283188614831C8610080064007F08D1
:100D3000831629028A110A128312031DAA2E640047
:100D40008A110A1283168310A01F8314831283183A
:100D5000AA2E080064007F08043C8A110A12031DB1
:100D6000B52EFF018A110A12B62EFF0A64007F0811
:100D7000831629028A110A128312031DC52E8316B7
:100D8000A01783128A110A12C82E83162013831209
:100D900008008316A601640083127F0883162902C7
:100DA0008A110A128312031DE02E64008A110A12AE
:100DB00083168310201F831483128318E02E0800EB
:100DC00083162908603E840083125308800083162E
:100DD00029088312A600A7010230A200A3018A01FC
:100DE0007420ED002508EE00ED0A0319EE0A6D08E7
:100DF000563E84004F088000831629088312A600FF
:100E0000A7010230A200A3018A017420ED00250889
:100E1000EE006D08563E84005008800003107F0DE0
:100E2000563E84000008ED00840A0008EE006708C2
:100E3000A0006808A1006E08A3006D088A015B206D
:100E40008A110A12031D252F080003107F0D563E3C
:100E500084000008ED00840A0008EE001E306707D9
:100E6000EF0068080318013EF0006D08A0006E084E
:100E7000A1007008A3006F088A015820EF0003103A
:100E80007F0D563E84000008F100840A0008F2003D
:100E90001E306702F3000030031C013E6802F400BC
:100EA0007108A0007208A1007408A30073088A01E9
:100EB0005220F3006F08840073088A016D20F3004C
:100EC000F4006400730874048A110A120319692F6C
:100ED00008008316A015831203107F0D563E840070
:100EE0000008ED00840A0008EE006708A00068080A
:100EF000A1006E08A3006D088A0155208A110A120C
:100F0000031D8A2FFE148316A010201583128A1148
:100F10000A128F2FFE108316A01420118312640072
:100F200083162908043C8A110A128312031D9E2F7E
:100F30008316A90183128A110A12A12F8316A90A06
:100F4000831264007F08831629028A110A12831211
:100F5000031DB02F8316201783128A110A12B32F94
:0E0F60008316A0138312080063008A01B42FC9
:02400E00FC2F85
:00000001FF
