:020000040000FA
:02000000752861
:0800080083178001840AFF3E0A
:10001000031D05287028031783168C010C14831206
:100020000C0803178D0A7028030103178C00831630
:100030008C010C1555308D00AA308D008C148C1855
:100040001F280C1183128D0A7028A301A200FF3013
:10005000A207031CA307031C70280330A100E6308D
:1000600033202728A101FC3EA000A109031C3E2843
:10007000FF300000A00703183928A0076400A10F73
:10008000382808000310A10CA00CFF3E03184228DA
:1000900020087028A20001305528A20006305528FB
:1000A000A20004305528A2000530A8002308210230
:1000B000031D5C28220820020430031801300319B4
:1000C00002302805031DFF3070280038031DFF3063
:1000D0000405031DFF3070280404031DFF30702841
:1000E00083130313831264000800C0309F0083163B
:1000F0000317880189010313960183129030980039
:100100008316243098000A3099008312253090001D
:100110000B108B108B110B12831681178510051095
:10012000051585150516851209108910860183129B
:100130008601831687100711871108148814081583
:10014000881508168816081788178312071120309B
:10015000840060308A010520A030840050308A017C
:1001600005201030840060308A0104209030840023
:1001700060308A010420860187108316981283124A
:100180000C10F3308E000B308F0003178D0103131A
:100190008A010B20E2006208CF00031701308D00B6
:1001A00003138A010B20E2006208D000031702301B
:1001B0008D0003138A010B20E2006208CD000317B3
:1001C00003308D0003138A010B20E2006208CE0089
:1001D000CB017D30CC0064008A110A120C1CFB2874
:1001E0000C10F3308E000B308F008A110A120B2492
:1001F0008A110A1200218A110A1227228A01EB2889
:100200006400043064028A110A12031C0E295D1175
:10021000DD10E401DD118A110A120F29E40A6400DD
:100220008A110A12DD1D17298A110A121C24D70A05
:1002300064008A110A12571C20298A110A125424B8
:1002400064003C3058028A110A12031C2C29D80180
:100250005C148A110A123329CB0A0319CC0A8A11B9
:100260000A123421D80A0800D90187148316981677
:1002700083123A30E6008A110A121D2264008A11A4
:100280000A125C1C4D29FF30E5008A110A12E82190
:10029000FF30D9068A110A125D2964006108FF3C0B
:1002A0008A110A12031D5629FE30E1006108E5009B
:1002B0006108D9068A110A12E82164008A110A121B
:1002C0005C1C6C294E08E5004E08D9068A110A12FA
:1002D000E8218A110A1273296008E5006008D9062E
:1002E0008A110A12E82164008A110A125C1C822910
:1002F0004D08E5004D08D9068A110A12E8218A1135
:100300000A1289295F08E5005F08D9068A110A12D6
:10031000E8215E08E5005E08D9068A110A12E82184
:1003200064008A110A125C1CA6295008E5008A1193
:100330000A12E8215008D9064F08E5008A110A126E
:10034000E8214F08D9068A110A12B4294C08E500A1
:100350008A110A12E8214C08D9064B08E5008A11D7
:100360000A12E8214B08D9066708E5006708D90694
:100370008A110A12E8210130E5008A110A12E821E7
:100380000130D9065D08E5008A110A12E8215D08EE
:10039000D9065908E5008A110A12E8210D30E60055
:1003A0008A110A121D220A30E6008A110A121D2241
:1003B00064008A110A125C1CDE295C100130A10065
:1003C000F4308A01332083169812831287100800B4
:1003D0006508A000A10104308A014520E2008A11CD
:1003E0000A12F9210F306505E2008A110A12F9217B
:1003F000080062080F3C8A110A12031C1D2A8A1188
:100400000A120622E6008A110A121D2A02308A0008
:1004100062080D3E03188A0A8200303431343234C7
:100420003334343435343634373438343934413471
:100430004234433444344534463464008A110A1249
:100440000C1A242A8A011D2A6608990008006400F3
:100450008A110A12981C302A18121816DB0108009B
:1004600064008A110A128C1A362A080064008A1164
:100470000A12181D422A1A08E300DB0108008A113B
:100480000A12442A1A08E3006308403C031DFF30A7
:10049000FF3AD1005B08003C031DFF30FF3AD30058
:1004A0005108840053088A016520D300D4006400F9
:1004B000530854048A110A1203197E2A0130E200FB
:1004C0006400093062028A110A120318702A620855
:1004D000383E84008001E20A8A110A12031D602A54
:1004E0004030B8000130DB00DA0164008A110A12E2
:1004F0008C1E7D2A8A01272A0800080064005B08F8
:10050000003C8A110A12031D8E2A64008A110A1205
:100510008C1E8D2A8A01272A0800080064000830F2
:100520005B028A110A120318AE2A5B08383E840067
:100530006308800064005B08073C8A110A12031DEF
:10054000A42A8A110A12AE2ADB0A64008A110A124E
:100550008C1EAD2A8A01272A08000800DB013F080B
:10056000013C031DFF30FF3AD1003F08143C031D3E
:10057000FF30FF3AD3005108840053088A016C20F1
:10058000D300D4006400530854048A110A120319DA
:100590000A2C39083A06D100D2013C08D1063D08A0
:1005A000D1063E08D1063F085106DA0064005A0819
:1005B0003B028A110A120319DE2A08006400390876
:1005C000703C8A110A12031DE62A080064003908EB
:1005D000673C8A110A12031DF02A8A01342108009F
:1005E00064003908613C8A110A12031DFD2ADD14DA
:1005F0005D11E4013A08E7000800640039087A3C1C
:100600008A110A12031D0A2BDD105D15E4013A0858
:10061000E700080064003908783C8A110A12031DBB
:10062000172BDD105D11E401061086100800640030
:1006300039086A3C8A110A12031D1F2B0800640046
:1006400039086B3C8A110A12031DC52BDD153A08C7
:10065000E7003D08D5003E08D60064003C08313C68
:100660008A110A12031D482B4B08A0004C08A10058
:100670005608A30055088A014A208A110A12031D50
:10068000452BE401DD11DC140800DC14DD105D15E0
:1006900064003C08323C8A110A12031D632B4B088C
:1006A000A0004C08A1005608A30055088A0150205C
:1006B0008A110A12031D602BE401DD11DC10080011
:1006C000DC10DD145D1164003C08383C8A110A120C
:1006D000031DC42B4908A0004A08A1005608A30026
:1006E00055088A0153208A110A12031D782B08002D
:1006F0005508C9005608CA001E304B07D1004C08E7
:100700000318013ED2005508A0005608A100520867
:10071000A30051088A015020D1001E304B02D300A3
:100720000030031C013E4C02D4005508A0005608BE
:10073000A1005408A30053088A014A20D30051089D
:10074000840053088A016520D300D4006400530854
:1007500054048A110A120319AE2B08004B08A0009A
:100760004C08A1005608A30055088A014D208A11A3
:100770000A12031DC12BDC14DD105D158A110A124B
:10078000C42BDC10DD145D11080064003908733CD3
:100790008A110A12031DE72B3D08CF004F08E20023
:1007A00003178D01031362088A01152005308A01A1
:1007B00025203E08D0005008E200031701308D00CC
:1007C000031362088A01152005308A012520640080
:1007D0003908643C8A110A12031D0A2C3D08CD0019
:1007E0004D08E200031702308D00031362088A01EE
:1007F000152005308A0125203E08CE004E08E20073
:10080000031703308D00031362088A011520053099
:100810008A01252008000800051464308A0132206E
:100820000808CC00851414308A0132200808CB0057
:1008300085100510E4010800E4018A010B2464001E
:100840008A110A12DC1C3D2C4B08A0004C08A100A8
:100850005608A30055088A014A208A110A12031D6E
:100860003A2CDD105D1106108610E401DD11061230
:10087000861106118A110A12532C4B08A0004C084D
:10088000A1005608A30055088A0150208A110A12B7
:10089000031D532CDD105D1106108610E401DD11DF
:1008A000061286110611080064008A110A12851DBD
:1008B000602C86100610E40106128611061108004D
:1008C00064006708003C8A110A12031D6A2C061294
:1008D0008611061164006708013C8A110A12031D83
:1008E000742C06128611061564006708023C8A11F2
:1008F0000A12031D7E2C0612861506116400670875
:10090000033C8A110A12031D882C0612861506154F
:1009100064006708043C8A110A12031D922C061613
:100920008611061164006708053C8A110A12031D2E
:100930009C2C06168611061564006708063C8A1171
:100940000A12031DA62C0616861506116400073030
:1009500067028A110A12031CB02C061686150615AA
:100960004B08A0004C08A1004E08A3004D088A01C6
:1009700050208A110A12031DC32C0610DD105D16CB
:100980008A110A12C82C5D12DD180614DD1C06102F
:100990004B08A0004C08A1005008A3004F088A0192
:1009A0004A208A110A12031DDB2C86105D11DD1608
:1009B0008A110A12E02CDD125D1986145D1D861065
:0809C000080063008A01E12C2C
:02400E00FC2F85
:00000001FF
