:020000040000FA
:020000006D2869
:0800080083178001840AFF3E0A
:10001000031D05286828031783168C010C1483120E
:100020000C0803178D0A6828030103178C00831638
:100030008C010C1555308D00AA308D008C148C1855
:100040001F280C1183128D0A6828A301A200FF301B
:10005000A207031CA307031C68280330A100E63095
:1000600033202728A101FC3EA000A109031C3E2843
:10007000FF300000A00703183928A0076400A10F73
:1000800038280800A20001304D28A20006304D2873
:10009000A20004304D28A2000530A8002308210248
:1000A000031D5428220820020430031801300319CC
:1000B00002302805031DFF3068280038031DFF307B
:1000C0000405031DFF3068280404031DFF30682861
:1000D00083130313831264000800C0309F0083164B
:1000E0000317880189010313960183129030980049
:1000F00083162430980040309900831225309000F8
:100100000B108B108B110B128316811785100510A5
:1001100005158515051685120910891083128601AB
:100120008316860187100711871108148814081593
:1001300088150816881608178817831207112030AB
:10014000840060308A010520A030840050308A018C
:1001500005201030840060308A0104209030840033
:1001600060308A010420860187100C10F3308E0065
:100170000B308F0006160130A300F4308A012620D0
:10018000061203178D0103138A010B20E900690889
:10019000D100031701308D0003138A010B20E90001
:1001A0006908D200031702308D0003138A010B2067
:1001B000E9006908CF00031703308D0003138A019B
:1001C0000B20E9006908D00083169812831264009E
:1001D0008A110A12E61CEC2864008A110A120C1C0F
:1001E000FC280C10F3308E000B308F008A110A129D
:1001F00064248A110A1201218A110A1237228A0103
:10020000E728640004306B028A110A12031C0F29CC
:100210006811E810EB0166118A110A121029EB0A25
:1002200064008A110A12661D18298A110A127424A0
:10023000DB0A64008A110A125B1C36298A110A1231
:10024000AC2464008A110A12681D2A29E7018A1168
:100250000A12362964008A110A12E81C3429013076
:10026000E7008A110A1236290230E70064001430D0
:100270005C028A110A12031C4229DC0165148A11EE
:100280000A124329DC0A0800CB01CC01871483162B
:10029000981664008A110A128312651E65290800E7
:1002A0002430EC008A110A1216225230EC008A1116
:1002B0000A1216227230EC008A110A121622061057
:1002C0008610E8106811EB0108002430EC008A1158
:1002D0000A1216225230EC008A110A121622243019
:1002E000EC008A110A12162264008A110A12651C97
:1002F0008529FF30EC00FF30CB060030CC068A1198
:100300000A1216228A110A128C296808EC00680861
:10031000CB068A110A12162264008A110A12651C81
:100320009B295008EC005008CB068A110A121622AD
:100330008A110A12A2296608EC006608CB068A1107
:100340000A12162264008A110A12651CB1294F088C
:10035000EC004F08CB068A110A1216228A110A12E3
:10036000B8296008EC006008CB068A110A12162230
:100370005F08EC005F08CB068A110A12162264009F
:100380008A110A12651CD5295208EC008A110A123A
:1003900016225108EC008A110A1216225108CB06C7
:1003A0005208CC068A110A12E3294E08EC008A1181
:1003B0000A1216224D08EC008A110A1216224D0864
:1003C000CB064E08CC066D08EC006D08CB068A11F2
:1003D0000A1216220130EC008A110A12162201308C
:1003E000CB060030CC06AA30CB06AA30CC064C088F
:1003F000EC008A110A1216224B08EC008A110A122C
:1004000016222330EC008A110A1216222330EC0047
:100410008A110A12162264008A110A12651C112A16
:1004200065108316981283128710080001300C1A89
:10043000013AD3000030D40083160030981A0130FE
:1004400083128400530854048A015D20D300D40031
:100450006400530854048A110A120319312A8A01CC
:10046000162A6C08990083169816831208006400F7
:100470008A110A12981C3F2A1812181608006400E4
:100480008A110A128C1A452A08001A08EA006A081A
:10049000693C031DFF30FF3AD3005E08003C031D9A
:1004A000FF30FF3AD5005308840055088A015D20CB
:1004B000D500D6006400550856048A110A120319A3
:1004C000812A0130E9006400093069028A110A12A8
:1004D0000318732A6908383E84008001E90A8A11EA
:1004E0000A12031D632A6930B8000130DE00DD0105
:1004F00064008A110A128C1E802A8A01372A080099
:10050000080064005E08003C8A110A12031D912A4B
:1005100064008A110A128C1E902A8A01372A080068
:100520000800640008305E028A110A120318B12A1A
:100530005E08383E84006A08800064005E08073C5C
:100540008A110A12031DA72A8A110A12B12ADE0A89
:1005500064008A110A128C1EB02A8A01372A080008
:100560000800DE013F08013C031DFF30FF3AD300C5
:100570003F08143C031DFF30FF3AD50053088400A8
:1005800055088A016420D500D60064005508560439
:100590008A110A120319632CDE0139083A06D300C6
:1005A000D4013C08D3063D08D3063E08D3063F08D5
:1005B0005306DD0064005D083B028A110A1203192C
:1005C000E22A080064003908703C8A110A12031DEF
:1005D000EA2A080064003908673C8A110A12031DE0
:1005E000F42A8A014421080064003908623C8A1117
:1005F0000A12031DFC2A080064003908633C8A11B2
:100600000A12031D042B080064003908613C8A119A
:100610000A12031D122BE8146811E512EB013A08C7
:10062000ED000800640039087A3C8A110A12031DA3
:10063000202BE8106815E516EB013A08ED000800DC
:1006400064003908783C8A110A12031D2D2BE8102A
:100650006811EB01061086100800640039086A3C36
:100660008A110A12031D352B080064003908723CF8
:100670008A110A12031D432B64008A110A12E61C18
:10068000422B08000800640039086C3C8A110A12E9
:10069000031D512B64008A110A12E61C502B08001E
:1006A000080064003908713C8A110A12031D5F2B8F
:1006B00064008A110A12E61C5E2B08000800640020
:1006C00039086E3C8A110A12031D672B080064006A
:1006D00039086B3C8A110A12031D122CE5106615AD
:1006E0003A08ED003D08D7003E08D80064003C08F9
:1006F000313C8A110A12031D922B4D08A0004E08AE
:10070000A1005808A30057088A0142208A110A1242
:10071000031D8E2BEB016611651508006515E810A9
:100720006815E51664003C08323C8A110A12031D64
:10073000AE2B4D08A0004E08A1005808A300570892
:100740008A0148208A110A12031DAA2BEB016611A7
:10075000651108006511E8146811E51264003C0891
:10076000383C8A110A12031D112C4908A0004A08BE
:10077000A1005808A30057088A014B208A110A12C9
:10078000031DC32B08005708C9005808CA001E30B3
:100790004D07D3004E080318013ED4005708A000AF
:1007A0005808A1005408A30053088A014820D30028
:1007B0001E304D02D5000030031C013E4E02D60013
:1007C0005708A0005808A1005608A30055088A0140
:1007D0004220D5005308840055088A015D20D500C9
:1007E000D6006400550856048A110A120319F92B21
:1007F00008004D08A0004E08A1005808A3005708A3
:100800008A0145208A110A12031D0D2C6515E81076
:100810006815E5168A110A12112C6511E814681181
:10082000E512080064003908733C8A110A12031D9E
:100830003A2C64008A110A12E61C1F2C08003D089D
:10084000D1005108E90003178D01031369088A01DB
:10085000152005308A0125203E08D2005208E90003
:10086000031701308D00031369088A011520053034
:100870008A01252064003908643C8A110A12031D8C
:10088000632C64008A110A12E61C472C08003D08FC
:10089000CF004F08E900031702308D0003136908E9
:1008A0008A01152005308A0125203E08D000500815
:1008B000E900031703308D00031369088A0115202E
:1008C00005308A0125200800051464308A01322091
:1008D0000808CE00851414308A0132200808CD00A3
:1008E00085100510EB010800EB018A016424640007
:1008F0008A110A12651D952C4D08A0004E08A10012
:100900005808A30057088A0142208A110A12031DC1
:10091000922CE810681106108610EB016611061281
:10092000861106118A110A12AB2C4D08A0004E0840
:10093000A1005808A30057088A0148208A110A120A
:10094000031DAB2CE810681106108610EB01661130
:10095000061286110611080064008A110A12851D0C
:10096000B92C86100610EB01061286110611E6104E
:10097000080064006D08003C8A110A12031DC32C94
:1009800006128611061164006D08013C8A110A12D4
:10099000031DCD2C06128611061564006D08023C5D
:1009A0008A110A12031DD72C06128615061164003F
:1009B0006D08033C8A110A12031DE12C06128615EC
:1009C000061564006D08043C8A110A12031DEB2C05
:1009D00006168611061164006D08053C8A110A127C
:1009E000031DF52C06168611061564006D08063CDD
:1009F0008A110A12031DFF2C0616861506116400C3
:100A000007306D028A110A12031C092D061686157D
:100A100006154D08A0004E08A1005008A3004F087D
:100A20008A0148208A110A12031D1C2D0610E810A5
:100A300068168A110A12212D6812E8180614E81C9B
:100A400006104D08A0004E08A1005208A30051084E
:100A50008A0142208A110A12031D342D8610681162
:100A6000E8168A110A12392DE81268198614681DD1
:0A0A70008610080063008A013A2D89
:02400E00FC2F85
:00000001FF
