:020000040000FA
:02000000752861
:0800080083178001840AFF3E0A
:10001000031D05287028031783168C010C14831206
:100020000C0803178D0A7028030103178C00831630
:100030008C010C1555308D00AA308D008C148C1855
:100040001F280C1183128D0A7028A301A200FF3013
:10005000A207031CA307031C70280330A100E6308D
:1000600033202728A101FC3EA000A109031C3E2843
:10007000FF300000A00703183928A0076400A10F73
:10008000382808000310A10CA00CFF3E03184228DA
:1000900020087028A20001305528A20006305528FB
:1000A000A20004305528A2000530A8002308210230
:1000B000031D5C28220820020430031801300319B4
:1000C00002302805031DFF3070280038031DFF3063
:1000D0000405031DFF3070280404031DFF30702841
:1000E00083130313831264000800C0309F0083163B
:1000F0000317880189010313960183129030980039
:100100008316243098000A3099008312253090001D
:100110000B108B108B110B12831681178510051095
:10012000051585150516851209108910860183129B
:100130008601831687100711871108148814081583
:10014000881508168816081788178312071120309B
:10015000840060308A010520A030840050308A017C
:1001600005201030840060308A0104209030840023
:1001700060308A010420860187108316981283124A
:100180000C10F3308E000B308F0003178D0103131A
:100190008A010B20E4006408CF00031701308D00B2
:1001A00003138A010B20E4006408D0000317023017
:1001B0008D0003138A010B20E4006408CD000317AF
:1001C00003308D0003138A010B20E4006408CE0085
:1001D000CB017D30CC0064008A110A120C1CFB2874
:1001E0000C10F3308E000B308F008A110A12E324BA
:1001F0008A110A1200218A110A1208228A01EB28A8
:100200006400043066028A110A12031C0E29601170
:10021000E010E601E0118A110A120F29E60A6400D3
:100220008A110A12E01D17298A110A12F424D90A28
:1002300064008A110A12591C20298A110A122C25DD
:1002400064003C305A028A110A12031C2C29DA017C
:100250005F148A110A123029CB0A0319CC0ADA0A70
:100260000800DC0187148316981683123A30E800E0
:100270008A110A12FE2164008A110A125F1C672982
:10028000FF30E7008A110A12C921FF30DC064E0850
:10029000E7004E08DC068A110A12C9214D08E70062
:1002A0004D08DC068A110A12C9215008E7008A119C
:1002B0000A12C9215008DC064F08E7008A110A1209
:1002C000C9214F08DC065F108A110A1293296400C5
:1002D0006308FF3C8A110A12031D7029FE30E300F7
:1002E0006308E7006308DC068A110A12C921620864
:1002F000E7006208DC068A110A12C9216108E700DA
:100300006108DC068A110A12C9214C08E7008A112B
:100310000A12C9214C08DC064B08E7008A110A12B0
:10032000C9214B08DC065B08E7005B08DC068A1184
:100330000A12C921DB016008E7008A110A12C921EB
:100340006008DC066908E7006908DC068A110A1201
:10035000C9210130E7008A110A12C9210130DC06E7
:100360005C08E7008A110A12C9210D30E8008A11E1
:100370000A12FE210A30E8008A110A12FE21013019
:10038000A100F4308A01332083169812831287105B
:1003900008006708A000A10104308A014520E4009C
:1003A0008A110A12DA210F306705E4008A110A1255
:1003B000DA21080064080F3C8A110A12031CFE2986
:1003C0008A110A12E721E8008A110A12FE29013077
:1003D0008A006408EE3E03188A0A82003034313401
:1003E00032343334343435343634373438343934C1
:1003F00041344234433444344534463464008A1131
:100400000A120C1A052A8A01FE29680899000800B8
:1004100064008A110A12981C112A18121816DE019B
:10042000080064008A110A128C1A172A0800640056
:100430008A110A12181D232A1A08E500DE01080095
:100440008A110A12252A1A08E50064005E08003C99
:100450008A110A12031D522A64006508403C8A1161
:100460000A120319372ADE018A110A124E2A403075
:10047000B8000130DE000130E4006400093064029D
:100480008A110A1203184D2A6408383E840080013C
:10049000E40A8A110A12031D3D2ADD0108008A11AF
:1004A0000A12C42A64005E08013C8A110A12031D64
:1004B0006C2A64006508FF3C8A110A12031D642A35
:1004C000DE018A110A12682A3130B9000230DE00DA
:1004D00008008A110A12C42A64005E08023C8A11CC
:1004E0000A12031D852A64006508463C8A110A1217
:1004F000031D802A8A013121DE018A110A12812A14
:10050000DE0108008A110A12C42A64005E08033C56
:100510008A110A12031D902A08008A110A12C42A9D
:1005200064005E08043C8A110A12031D9B2A08001D
:100530008A110A12C42A64005E08053C8A110A1254
:10054000031DA62A08008A110A12C42A64005E0844
:10055000063C8A110A12031DB12A08008A110A12E8
:10056000C42A64005E08073C8A110A12031DBC2AD3
:1005700008008A110A12C42A64005E08083C8A1125
:100580000A12031DC42A0800080064008A110A1216
:100590008C1ECC2A8A01082A08006508403C031DED
:1005A000FF30FF3AD1005E08003C031DFF30FF3AE8
:1005B000D3005108840053088A016520D300D40079
:1005C0006400530854048A110A120319082B5F119E
:1005D0000130E4006400093064028A110A12031831
:1005E000FA2A6408383E84008001E40A8A110A125B
:1005F000031DEA2A4030B8000130DE00DD0164004E
:100600008A110A128C1E072B8A01082A080008008A
:1006100064005E08003C8A110A12031D182B640056
:100620008A110A128C1E172B8A01082A080008005A
:10063000640008305E028A110A120318862B5E08D5
:10064000383E8400650880003808403C031DFF30B8
:10065000FF3AD1003908313C031DFF30D300510867
:10066000840053088A016520D300D4006400530835
:1006700054048A110A1203193F2BDE01080064009A
:100680005E08023C8A110A12031D722B3808403C96
:10069000031DFF30FF3AD1003908313C031DFF3004
:1006A000FF3AD3005108840053088A016520D30023
:1006B000D4003A08463C031DFF30FF3AD5005308EA
:1006C0005404840055088A016520D500D6006400D2
:1006D000550856048A110A120319722BDE018A0189
:1006E0003121080064005E08073C8A110A12031DCC
:1006F0007C2B8A110A12862BDE0A64008A110A12E8
:100700008C1E852B8A01082A08000800DE013F089C
:10071000013C031DFF30FF3AD1003F08FF3C031DA1
:10072000FF30FF3AD3005108840053088A016C203F
:10073000D300D4006400530854048A110A12031928
:10074000E22C39083A06D100D2013C08D1063D0816
:10075000D1063E08D1063F085106DD0064005D0861
:100760003B028A110A120319B62B080064003908EB
:10077000703C8A110A12031DBE2B08006400390860
:10078000673C8A110A12031DC82B8A013121080017
:1007900064003908613C8A110A12031DD52BE0144C
:1007A0006011E6013A08E9000800640039087A3C63
:1007B0008A110A12031DE22BE0106015E6013A08C7
:1007C000E900080064003908783C8A110A12031D08
:1007D000EF2BE0106011E60106108610080064009F
:1007E00039086A3C8A110A12031DF72B08006400BD
:1007F00039086B3C8A110A12031D9D2CE0153A083A
:10080000E9003D08D7003E08D80064003C08313CB0
:100810008A110A12031D202C4B08A0004C08A100CD
:100820005808A30057088A014A208A110A12031D9A
:100830001D2CE601E011DF140800DF14E010601544
:1008400064003C08323C8A110A12031D3B2C4B0801
:10085000A0004C08A1005808A30057088A015020A6
:100860008A110A12031D382CE601E011DF1008007E
:10087000DF10E014601164003C08383C8A110A1251
:10088000031D9C2C4908A0004A08A1005808A30099
:1008900057088A0153208A110A12031D502C0800A0
:1008A0005708C9005808CA001E304B07D1004C0831
:1008B0000318013ED2005708A0005808A1005208B2
:1008C000A30051088A015020D1001E304B02D300F2
:1008D0000030031C013E4C02D4005708A000580809
:1008E000A1005408A30053088A014A20D3005108EC
:1008F000840053088A016520D300D40064005308A3
:1009000054048A110A120319862C08004B08A0000F
:100910004C08A1005808A30057088A014D208A11ED
:100920000A12031D992CDF14E01060158A110A12B7
:100930009C2CDF10E0146011080064003908733C3F
:100940008A110A12031DBF2C3D08CF004F08E40096
:1009500003178D01031364088A01152005308A01ED
:1009600025203E08D0005008E400031701308D0018
:10097000031364088A01152005308A0125206400CC
:100980003908643C8A110A12031DE22C3D08CD008F
:100990004D08E400031702308D00031364088A0138
:1009A000152005308A0125203E08CE004E08E400BF
:1009B000031703308D00031364088A0115200530E6
:1009C0008A01252008000800051464308A013220BD
:1009D0000808CC00851414308A0132200808CB00A6
:1009E00085100510E6010800E6018A01E324640091
:1009F0008A110A12DF1C152D4B08A0004C08A1001B
:100A00005808A30057088A014A208A110A12031DB8
:100A1000122DE010601106108610E601E01106129A
:100A2000861106118A110A122B2D4B08A0004C08C2
:100A3000A1005808A30057088A0150208A110A1201
:100A4000031D2B2DE010601106108610E601E01149
:100A5000061286110611080064008A110A12851D0B
:100A6000382D86100610E6010612861106110800C0
:100A700064006908003C8A110A12031D422D061207
:100A80008611061164006908013C8A110A12031DCF
:100A90004C2D06128611061564006908023C8A1165
:100AA0000A12031D562D06128615061164006908E8
:100AB000033C8A110A12031D602D061286150615C5
:100AC00064006908043C8A110A12031D6A2D061687
:100AD0008611061164006908053C8A110A12031D7B
:100AE000742D06168611061564006908063C8A11E5
:100AF0000A12031D7E2D06168615061164000730A6
:100B000069028A110A12031C882D0616861506151D
:100B10004B08A0004C08A1004E08A3004D088A0114
:100B200050208A110A12031D9B2D0610E01060163A
:100B30008A110A12A02D6012E0180614E01C06109B
:100B40004B08A0004C08A1005008A3004F088A01E0
:100B50004A208A110A12031DB32D86106011E01677
:100B60008A110A12B82DE01260198614601D8610D1
:080B7000080063008A01B92DA1
:02400E00FC2F85
:00000001FF
